:020000040800F2
:10000000280A0020650200088F250008C922000880
:100010008D25000811060008132C000800000000C0
:100020000000000000000000000000009325000810
:10003000C50600080000000091250008952500086D
:100040007F0200087F0200087F0200087F0200088C
:100050007F0200087F020008C90600087F0200082E
:100060007F0200087F0200087F0200087F0200086C
:100070007F0200087F0200087F0200087F0200085C
:100080007F0200087F0200087F0200087F0200084C
:100090007F0200087F0200087F0200087F0200083C
:1000A0007F0200087F0200087F0200087F0200082C
:1000B0007F020008492600087F0200087F0200082E
:1000C0007F0200087F0200087F0200087F0200080C
:1000D0007F0200087F0200087F0200087F020008FC
:1000E0007F0200087F0200087F0200087F020008EC
:1000F0007F0200087F0200087F0200087F020008DC
:100100007F0200087F0200087F0200087F020008CB
:100110007F020008292900087F0200087F020008EA
:10012000150600087F0200087F0200087F02000811
:100130007F02000800000000000000007F020008AD
:100140007F0200087F0200087F0200087F0200088B
:100150007F0200087F0200087F0200087F0200087B
:100160007F0200087F0200087F0200087F0200086B
:100170007F0200087F0200087F02000800000000E4
:10018000000000007F0200080000000000000000E6
:100190007F02000800000000000000007F0200084D
:1001A0000000000000000000000000007F020008C6
:1001B0007F0200087F0200087F0200087F0200081B
:1001C0007F02000800F002F800F03CF80AA090E876
:1001D000000C82448344AAF10107DA4501D100F002
:1001E00031F8AFF2090EBAE80F0013F0010F18BF93
:1001F000FB1A43F00103184724370000443700007E
:10020000103A24BF78C878C1FAD8520724BF30C842
:1002100030C144BF04680C60704700000023002414
:1002200000250026103A28BF78C1FBD8520728BF06
:1002300030C148BF0B6070471FB503F05AFB1FBDAC
:1002400010B510BD00F0CFF81146FFF7F5FF02F032
:10025000F1FC00F0EDF803B4FFF7F2FF03BC00F08F
:10026000F5F800000948804709480047FEE7FEE727
:10027000FEE7FEE7FEE7FEE7FEE7FEE7FEE7FEE756
:1002800004480549054A064B704700003926000816
:10029000C501000828040020280A002028060020A4
:1002A0002806002053EA020C00F069802DE9F04B8B
:1002B0004FF00006002B1FBFB3FA83F503FA05F4D5
:1002C00024FA05F65E4012BF1643B2FA82F502FA2E
:1002D00005F4C5F120051EBF22FA05FC44EA0C0412
:1002E000203556EA044C4FEA144418BF641C4FF002
:1002F00000084FF00009904271EB030C39D300293C
:1003000019BFB1FA81F701FA07F6B0FA80F700FADF
:1003100007F6C7F120071EBF20FA07FC46EA0C06C5
:100320002037B6FBF4FCA7EB0507103F07F01F0BC7
:10033000CBF120060CFA0BFB2CFA06F644BFB346B1
:100340000026202FA4BF5E464FF0000B5BEA060C90
:1003500008BF4FF0010B19EB0B09ABFB027C48EB1C
:100360000608C01B06FB02CC0BFB03CC71EB0C0197
:10037000C1E70B46024641464846BDE8F08B13B53F
:100380004FF000004FF00001AFF30080BDE81C40CB
:1003900070474FF0000200B5134694469646203948
:1003A00022BFA0E80C50A0E80C50B1F12001BFF42E
:1003B000F7AF090728BFA0E80C5048BF0CC05DF894
:1003C00004EB890028BF40F8042B08BF704748BFE2
:1003D00020F8022B11F0804F18BF00F8012B704756
:1003E000704770477047754600F02CF8AE46050020
:1003F0006946534620F00700854618B020B5FFF740
:100400003FFFBDE820404FF000064FF000074FF0DF
:1004100000084FF0000B21F00701AC46ACE8C00922
:10042000ACE8C009ACE8C009ACE8C0098D4670472B
:1004300010B50446AFF300802046BDE81040FFF73A
:100440000ABF000000487047C4030020014918207B
:10045000ABBEFEE726000200704710B50146806B78
:10046000026C12F0500F05D0026CD20626D500F0B7
:100470003CFA10BD016C41F40071016401688A68A6
:1004800012F0405F17D1027EAAB9CA6A12F4700F47
:1004900002D08A6852050ED44A6822F020024A60CF
:1004A000016C21F480710164016CC90403D4016CF6
:1004B00041F00101016400F011FA10BD806BC26CC3
:1004C000BDE810400846104710B5806B402101641C
:1004D000416C41F00401416400F007FA10BD10B511
:1004E000806B00F001FA10BD464910B54A6822F44D
:1004F00040324A604A6843681A434A6001684A6861
:1005000022F480724A6001684A68036942EA032261
:100510004A6001684A6822F040724A6001684A688D
:1005200083681A434A6001688A6822F400628A601C
:1005300001688A68C3681A438A60816A6FF07062D2
:10054000D14201688A6822F070628A6001688A6814
:100550000CD0836A1A438A6001688A6822F040528C
:100560008A6001688A68C36A1A4301E022F0405237
:100570008A6001688A6822F002028A6001688A68DB
:10058000037E42EA43028A6090F820100029016845
:100590004A680FD042F400624A6001684A6822F457
:1005A00060424A6001684A68174C436A04EB43336F
:1005B0001A4301E022F400624A600168CA6A22F428
:1005C0007002CA620168CA6A838B104C04EB035341
:1005D0001A43CA6201688A6822F400728A6001685C
:1005E0008A6890F8303042EA43228A6001688A685B
:1005F00022F480628A6001688A68406942EA802049
:10060000886010BD0023014000E0FFFF0000F0FF04
:10061000FEE70000014800F003BB00006403002077
:1006200001681823CAB2103AB2FBF3F2054B6FF31C
:100630000901032A9B5CC36500D9091D8165084631
:1006400070470000FC38000810B5014600208B6997
:100650008A6A4FF0C07453B1B3F5005F15D072B120
:10066000012A0CD0022A0AD0032A09D104E01AB1C7
:10067000012A06D0022A03D1C96AC90100D5012086
:1006800010BDC96AA142FAD010BD002AF7D0012AD4
:10069000F2D0022AF3D0032AF3D010BD30B504689B
:1006A000256825F480252560046863608368402BF5
:1006B000036803D099600068C26030BD9A6000682A
:1006C000C16030BD704700001F48016841601F498C
:1006D0004A6A0260002048621D489FED1F1A2049A7
:1006E00090ED000A1B48F8EE400A90ED000A1B4806
:1006F000B8EE400A30EE800AC0EE010A90ED000A22
:10070000B8EEC00A20EE800ABCEEC00A10EE100A55
:100710000860144A10681449C306086801D4022806
:1007200005D01268D2060BD4012803D008E00120BE
:100730000E4904E00E480068642801D902200860D0
:10074000012000F0DFBB0000580300200000014042
:1007500024000020280000200000C8428000002063
:1007600084000020100402403800002064000020B3
:100770002C00002072B6FEE778B50024009490F8B3
:100780003C20012A19D0012280F83C200A68072366
:100790000568092A13D9EE680A3A02EB420293402F
:1007A0009E43EE600B788A680A3B03EB43039A4052
:1007B0000368DD682A43DA6010E0022078BD2E6904
:1007C00002EB420293409E432E610B788A6803EB52
:1007D00043039A4003681D692A431A614A681F232C
:1007E000072A13D205686E6B521E02EB82029340F9
:1007F0009E436E630A8893B20A79521E02EB82020C
:1008000093400268556B2B43536327E005680D2A1C
:1008100012D22E6BD21F02EB820293409E432E63B4
:100820000B790A88DB1F92B203EB83039A400368BB
:100830001D6B2A431A6311E0EE6A0D3A02EB820245
:1008400093409E43EE620B790A880D3B92B203EB14
:1008500083039A400368DD6A2A43DA621B4B05680A
:10086000194A9D420AD10D68122D07D1556825F409
:1008700000055560556845F48005556005689D4242
:100880001DD1134D0B68AB4201D0112B17D153680A
:1008900023F480035360536843F4000353600968F2
:1008A000A9420CD10B490C4A0968B1FBF2F101EBEA
:1008B0008101490000E0491E00910029FBD180F828
:1008C0003C40002078BD0000002301400020014092
:1008D000120000109400002040420F000149012046
:1008E00008627047000000207047704770B5040030
:1008F0004FF0000503D0206C002610B107E0012066
:1009000070BD204600F01CF8666484F83C60206CE2
:10091000C00610D4206C20F4885040F002002064FF
:100920002046FFF7E1FD6664206C20F0020040F0F5
:100930000100206400E0012584F83C60284670BD79
:10094000F0B587B0064614216846FFF722FD2C4912
:10095000DFF8A8C037680025294814390F2203237F
:10096000284C674530D1076847F4807707600068F6
:1009700000F480700590086840F004000860086882
:10098000694600F0040005908DE82C00204600F038
:10099000C5FA1E4C1C48C4E900050015A560C4E951
:1009A0000350800060618000A0618011E06100025E
:1009B000C4E90805204600F003FA08B1FFF7DAFEA3
:1009C000B463A66307B0F0BD114EB742FAD1066812
:1009D00046F400760660006800F400700590086830
:1009E00040F0040008600868694600F004000590C3
:1009F0008DE82C00204600F091FAE3E7002001404A
:100A000044380240000802401064024064030020A1
:100A100000210140F8B5044600200E46009094F8ED
:100A20003C10012907D0012184F83C1021688B6813
:100A3000DB0702D011E00220F8BD8B6843F0010310
:100A40008B604049404B0968B1FBF3F101EB410178
:100A500000E0491E00910029FBD121688B68DB056D
:100A600003D58B6823F480738B6021688B68DB0768
:100A70005DD0236C40F20165AB4343F48073236483
:100A80004968490505D5216C21F4005141F4805194
:100A90002164216CC90404D5616C21F006016164F4
:100AA00000E0606484F83C00A16B2948274DC863CE
:100AB000A16B28480864A16B2748C86421686FF0BF
:100AC000220008602068416841F080614160206830
:100AD000816841F4807181602168134632464C314F
:100AE000A06B00F0D7F968681C49C006206806D0E2
:100AF000884224D1816811F0405F13D01FE0884202
:100B0000F8D0174A904203D1D1F80423D206F1D08D
:100B1000144A904213D1D1F8041301F01F01102997
:100B2000E8D30CE0816841F08041816007E0206CEF
:100B300040F010002064606C40F001006064002010
:100B4000F8BD00009400002040420F000023014047
:100B50005B040008DF040008C9040008002001400D
:100B600000210140002201402DE9F0410446876D3B
:100B700000F0C2FA064694F835000025022806D097
:100B80008020606584F834500120BDE8F081206841
:100B9000016821F0160101602068416921F080019F
:100BA0004161206C08B9A06C20B12068016821F077
:100BB000080101602068016821F0010101600CE07A
:100BC00000F09AFA801B052807D9202060650320D1
:100BD00084F8350084F83450D7E720680068C007EF
:100BE000EED194F85C103F208840B860012084F872
:100BF000350084F834500020C7E790F835100229FA
:100C000003D08021416501207047052180F835100F
:100C10000068016821F001010160002070470000B8
:100C20002DE9F84304464FF00009CDF800906348E1
:100C30004FF41651A56D0068B0FBF1F72E6894F8DB
:100C40005C10082000FA01F131420FD021680A68D7
:100C500052070BD50A6822F004020A6094F85C106F
:100C60008840A860606D40F00100606594F85C10F9
:100C70004FF0010808FA01F0304208D021684969B4
:100C8000090604D5A860606D40F00200606594F824
:100C90005C1004208840304208D021680968890728
:100CA00004D5A860606D40F00400606594F85C10A5
:100CB00010208840304218D021680968090714D5EF
:100CC000A86020680168490304D50068000308D5BE
:100CD000A16C07E00168C90503D4016821F008018F
:100CE0000160216C09B12046884794F85C102020EF
:100CF0008840304231D021680968C9062DD5A860E6
:100D000094F8350005282068016806D0490347D5C6
:100D1000006800031DD4616C1CE021F01601016025
:100D20002068416921F080014161206C08B9A06C04
:100D300020B12068016821F00801016094F85C107E
:100D40003F208840A86084F8358084F83490216D75
:100D50001FE0E16B09B120468847606D00282BD069
:100D6000606DC00714D0052084F835002068016844
:100D700021F0010101600098401C0090B84203D8A6
:100D800020680068C007F6D184F8358084F8349074
:100D9000E16C002910D001B02046BDE8F0430847BF
:100DA0000168C905D5D4016821F01001016084F8FB
:100DB000358084F83490CCE7BDE8F88394000020B7
:100DC0002DE9F041044600F097F906465CB1022097
:100DD00084F83500002584F834502068016821F03B
:100DE000010101600DE00120BDE8F08100F084F90F
:100DF000801B052805D920206065032084F8350074
:100E0000F2E720680068C007F0D122681168204826
:100E10000140D4E901031843D4E9033633431843AE
:100E200063691843A3691843E3691843236A1843A5
:100E30000843616A042903D1D4E90B131943084319
:100E4000106020684069666A20F0070130460E4352
:100E5000012704280CD1A06A0643E06A40B120466D
:100E6000FFF7F2FB20B14020606584F83570BAE7E7
:100E7000206846612046FFF7D3FB94F85C203F21B1
:100E800091408160656584F835700020ACE7000012
:100E90003F8010F02DE9F0410446866D90F8340053
:100EA000002501280DD0012084F8340094F8357015
:100EB0000020012F07D084F8340002252846BDE821
:100EC000F0810220FBE7022784F835706065204638
:100ED000FFF7E4FB94F85C103F208840B060206886
:100EE000016841F016010160206C20B120680168A2
:100EF00041F0080101602068016841F001010160D2
:100F0000DCE77047044910B50A68024202D0086065
:100F1000FFF7F7FF10BD0000143C01402DE9F84F2A
:100F2000DFF8ACA10022012403254FF00F090AF1DC
:100F3000040BAAF1040E00BF0B6804FA02F633405A
:100F4000B3426ED10F7907F00307012F01D0022FB2
:100F500016D187684FEA420805FA08FC27EA0C0711
:100F6000D1F80CC00CFA08FC4CEA070CC0F808C019
:100F70004768B7430E79C6F3001696403E43466075
:100F80000E79F643B6070AD0C6684FEA420C05FA56
:100F90000CF7BE438F6807FA0CF73743C7600E792A
:100FA00006F00306022E10D1D60800EB8608D8F80A
:100FB000206057074FEAD76C09FA0CF7BE430F6958
:100FC00007FA0CF73743C8F8207006684FEA420C5E
:100FD00005FA0CF7BE430F7907F0030707FA0CF781
:100FE000374307604E6816F4403F6BD0394E376880
:100FF00047F480473760366822F0030706F48046DE
:101000000096354E07EB060CDCF8086897074FEAA8
:10101000177809FA08F7BE43304FB84202D10027CB
:101020001FE04FE02E4FB84201D1012719E02D4FAC
:10103000B84201D1022714E02B4FB84201D1032757
:101040000FE02A4FB84201D104270AE0284FB842E6
:1010500001D1052705E0274FB84201D1062700E05E
:10106000072707FA08F73743CCF80878DAF8006062
:101070005746D1F804C09E435FEACC2C00D51E43EE
:101080003E60DBF800605F46D1F804C09E435FEA33
:101090008C2C00D51E433E60DEF800607746D1F808
:1010A00004C09E435FEA8C3C00D51E433E60084F5F
:1010B000083F3E68D1F804C09E435FEACC3C00D5AF
:1010C0001E433E60521C102AFFF436AFBDE8F88F75
:1010D000083C01404438024000300140000002401A
:1010E0000004024000080240000C024000100240D0
:1010F0000014024000180240014880687047000058
:10110000880000200248816802781144816070479D
:10111000880000200B4810B5016841F4007101609F
:10112000016841F480610160016841F480710160EF
:10113000032000F06FF80F2000F006F800F024F80C
:10114000002010BD003C024070B50D4D04464FF428
:101150007A712878B1FBF0F00A490968B1FBF0F028
:1011600000F074FB48B9102C07D200222146501E13
:1011700000F030F800206C6070BD012070BD0000F0
:1011800088000020940000200A4808B5016841F456
:1011900080410160006800F4804000900548001F15
:1011A000016841F080510160006800F080500090BB
:1011B00008BD000044380240002809DB00F01F028F
:1011C000012191404009800000F1E020C0F80011A9
:1011D00070470000F0B40E4B1B680C46C3F30223AB
:1011E000C3F10705042D00D90425191D072901D2D3
:1011F000002300E0DB1E012606FA05F1491E21400E
:1012000099409E40761E16403143F0BC01F002BD6D
:101210000CED00E0064900F0070208684FF6FF03F6
:10122000184040EA0220034A10430860704700005B
:101230000CED00E00000FA052DE9F84317480168BD
:1012400041F0805101600068154F00F08050012688
:1012500000903E64FFF750FF05464FF47A78114C3A
:1012600005E000BFFFF748FF401B40450DD8606810
:10127000C003F7D57E64FFF73FFF0546464607E00B
:10128000FFF73AFF401BB04202D90320BDE8F883C4
:1012900060688003F4D50020F8E700004038024081
:1012A00000000E42007000402DE9F0470E46050098
:1012B00065D0DFF81481D8F80000F7B200F00F0015
:1012C000B04207D288F80070D8F8000000F00F0094
:1012D000B04254D128683D4C810712D5400703D550
:1012E000206840F4E05020602878000703D520688B
:1012F00040F4604020602068A96820F0F0000843B6
:1013000020602878C0072DD0304968680839012846
:1013100012D0022813D0032811D0096889070029A8
:101320002DDA216821F0030101432160FFF7E4FE7B
:10133000814641F2883A0EE009688903EFE70968BF
:101340008901ECE7FFF7D8FEA0EB0901514502D96E
:101350000320BDE8F0872068696800F00C00B0EB5E
:10136000810FEFD1D8F80010404601F00F01B142D3
:1013700007D90770006800F00F00B04201D00120CB
:10138000E7E72878400705D52068E96820F4E050B1
:10139000084320602878000706D52068296920F4D2
:1013A000604040EAC100206000F038F82168084A37
:1013B000C1F30311515CC840064908600648006843
:1013C000FFF7C2FE0020C4E7003C0240083802409C
:1013D00004390008940000208C00002004480549CE
:1013E00000680968044AC1F38221515CC840704713
:1013F00094000020083802401439000804480549C8
:1014000000680968044AC1F34231515CC840704722
:10141000940000200838024014390008224810B512
:10142000006810F00C02214815D02149042A11D07F
:101430001D4C241F082A0FD00C2A0CD122682368C7
:1014400002F03F025B0221D52068C0F38810A0FBA8
:10145000010120E0084610BD2268236802F03F0227
:101460005B0205D52068C0F38810A0FB010104E0F1
:101470002168C1F38811A1FB00010023FEF712FFD0
:101480002168C1F30141491C49000AE02168C1F308
:101490008811A1FB00010023FEF704FF2168C1F3BE
:1014A0000271B0FBF1F010BD083802400024F400D6
:1014B00040787D012DE9F84F04007DD0DFF878B346
:1014C0002078ABF10407C007A7F1040550D0DBF882
:1014D00000105846C1F3810101290FD00168C1F302
:1014E0008101022902D13968490207D40068C0F39A
:1014F0008100032809D13868400206D52868800396
:1015000036D560680028D8D032E06068B0F5803FFA
:1015100010D0B0F5A02F286810D020F480302860BB
:10152000286820F4802028606068A0B1FFF7E4FDFF
:1015300006460CE0286840F48030F4E740F4802050
:101540002860F7E7FFF7D8FD801B642876D8286865
:101550008003F7D50CE0FFF7CFFD064605E000BF9E
:10156000FFF7CAFD801B6428F0D828688003F7D4F1
:101570002078DFF8C89280074FF0000A44D5DBF8E6
:101580000010584611F00C0F0FD00168C1F3810113
:10159000022902D13968490207D50068C0F38100E9
:1015A00003280AD13868400207D42868800715D577
:1015B000E068012800D111E03AE1E068B0B1012013
:1015C000C9F80000FFF798FD064604E0FFF794FD18
:1015D000801B0228BAD828688007F7D528682169B7
:1015E00020F0F80040EAC10028600DE0C9F800A032
:1015F000FFF782FD064604E0FFF77EFD801B022810
:101600001CD828688007F7D42078000727D5DFF892
:1016100028828B48616908F16C0881B10121016061
:10162000FFF76AFD064604E0FFF766FD801B02280F
:1016300004D8D8F800008007F6D510E089E0C0F89B
:1016400000A0FFF759FD064605E000BFFFF754FD77
:10165000801B02287DD8D8F800008007F6D42078B7
:10166000400769D574484FF0000838300068C00062
:101670000BD471483830016841F080510160006836
:101680004FF0010800F0805000906E4E3068C005A9
:1016900011D4306840F480703060FFF72DFD009069
:1016A00006E000BFFFF728FD0099401A022850D835
:1016B0003068C005F6D5604EA068683601280FD0A6
:1016C0000528306810D020F001003060306820F02C
:1016D00004003060A068B8B1FFF70EFD00900FE085
:1016E000306840F00100F4E740F004003060F7E7B4
:1016F000FFF702FD0099411A41F28830814264D817
:1017000030688007F4D50EE0FFF7F6FC009007E0A4
:10171000FFF7F2FC0099411A41F28830814254D817
:1017200030688007F4D4B8F1000F05D04248383053
:10173000016821F080510160A069A8B3DBF80010B6
:10174000C1F38101022947D00228C9F860A005D061
:1017500000E03AE0FFF7D0FC044639E0FFF7CCFCAC
:10176000064604E0FFF7C8FC801B02282DD8286835
:101770008001F7D4F4E907010843E168324A4908D7
:1017800002EB0141A26841EA82110843217C40EA50
:101790000160217D40EA017038600120C9F86000D5
:1017A000FFF7AAFC044606E044E000BFFFF7A4FCF4
:1017B000001B022809D828688001F7D53AE000BF4D
:1017C000FFF79AFC001B022802D90320BDE8F88F1E
:1017D00028688001F4D42DE00128F7D03868E26948
:1017E00000F48001914223D1226A00F03F0191422E
:1017F0001ED147F6C071626A0140B1EB821F17D15A
:10180000A26A4FF0FF3300F4403103EB5202B1EB18
:10181000024F0DD194F82C2000F07061B1EB026FF3
:1018200006D194F8301000F0E040B0EB017F01D019
:101830000120CBE70020C9E70838024000004742FA
:10184000800E4742007000400000FFFF10B5401EB0
:10185000B0F1807F01D3012010BD4FF0E024606122
:101860000F21601701F0D6F90020A0610720206148
:10187000002010BD7047704770B590F83C20012AD9
:1018800032D0012480F83C40022280F83D200368D9
:101890005A689D6822F070060A6832435A60134BFA
:1018A00002689A4214D0B2F1804F11D0104B9A4284
:1018B0000ED0104B9A420BD00F4B9A4208D00F4BD0
:1018C0009A4205D00E4B9A4202D00E4B9A4204D156
:1018D000496825F080031943916080F83D4000215C
:1018E00080F83C10084670BD022070BD0000014029
:1018F0000004004000080040000C004000040140CB
:10190000004001400018004010B5040003D094F8D6
:101910003D0010B107E0012010BD002084F83C001C
:10192000204600F01FF8022084F83D00211D2068A9
:1019300000F090FE012084F8460084F83E0084F810
:101940003F0084F8400084F8410084F8420084F8A5
:10195000430084F8440084F8450084F83D000020EA
:1019600010BD000008B500681149884209D111482E
:10197000016841F001010160006800F00100009081
:1019800008BD0D498842FBD10A48001F016841F09B
:10199000020101600068002200F002000090114680
:1019A0001D20FFF717FCBDE808401D20FFF704BC11
:1019B00000000140443802400004004090F83D100F
:1019C000012901D001207047022180F83D100068F4
:1019D0001149884214D0B0F1804F11D00F4988428C
:1019E0000ED00F4988420BD00E49884208D00E49CC
:1019F000884205D00D49884202D00D49884204D161
:101A0000816801F00701062903D0016841F0010156
:101A10000160002070470000000001400004004009
:101A200000080040000C004000040140004001405C
:101A30000018004070B5044690F83C0000250128CD
:101A400017D0012684F83C60022084F83D0020680D
:101A5000826822F0770222F47F4282600868502870
:101A600038D00DDC20284FD005DC90B3102811D1E0
:101A70004AE0022070BD302846D040280AD13BE021
:101A800060282FD070280DD0B0F5805F03D0B0F55E
:101A9000005F12D0012584F83D60002084F83C00EE
:101AA000284670BDCB68D1E90121206800F043FED3
:101AB0002068816841F0770109E0CB68D1E9012114
:101AC000206800F038FE2068816841F48041816020
:101AD000E1E719E0CA684968206800F001FF502179
:101AE000206806E0CA684968206800F00AFF6021A3
:101AF000206800F02AFECEE7CA684968206800F036
:101B0000EFFE40212068F4E7226801461046F0E726
:101B1000704770B50446006801694FF00005C9437D
:101B2000890715D4C168C943890711D4E91E016129
:101B300001202077206880698007204602D0FFF7C7
:101B4000E7FF04E000F0C2F8204600F080F92577B6
:101B500020680169C943490717D4C168C9434907C7
:101B600013D46FF00401016102202077206880699E
:101B700010F4407F204602D0FFF7CAFF04E000F0D7
:101B8000A5F8204600F063F9257720680169C9436C
:101B9000090716D4C168C943090712D46FF00801B8
:101BA0000161042020772068C0698007204602D0A8
:101BB000FFF7AEFF04E000F089F8204600F047F997
:101BC000257720680169C943C90617D4C168C9438C
:101BD000C90613D46FF01001016108202077206836
:101BE000C06910F4407F204602D0FFF791FF04E067
:101BF00000F06CF8204600F02AF92577206801698A
:101C0000C943C90708D1C168C943C90704D1891E9E
:101C10000161204600F01CF920680169C9430906EA
:101C200009D4C168C943090605D46FF08001016178
:101C30002046FFF71FFE20680169C943490609D401
:101C4000C168C943490605D46FF0400101612046CF
:101C500000F0FFF820680169C94389060BD4C16808
:101C6000C943890607D46FF0200101612046BDE811
:101C70007040FFF700BE70BD10B586B00446142159
:101C80006846FEF786FB0E492068884216D10D484B
:101C90000021026842F004020260006800F00400C3
:101CA00005904FF4807000900220CDE901010321DE
:101CB000CDE9031069460448FFF730F906B010BDBE
:101CC000000400403038024000080240704770B500
:101CD0000D46040003D094F83D0010B107E0012048
:101CE00070BD002084F83C00204600F01BF8022064
:101CF00084F83D00211D206800F0ACFC20680168DC
:101D000021F00801016054F8460B01682943016085
:101D1000012004F81F09E0752076E0762077A07591
:101D2000002070BD704770B5044690F83C00002656
:101D30000D4601280FD0012084F83C006AB1042A26
:101D40001DD0082A2FD00C2A3FD00126002084F86D
:101D50003C00304670BD022070BD206800F0FEFCE3
:101D60002068816941F0080181612068816921F062
:101D700004018161206881692A69114311E02068AA
:101D800000F01CFD2068816941F4006181612068D8
:101D9000816921F480618161206881692A6941EA51
:101DA00002218161D2E7206800F03EFD2068C16910
:101DB00041F00801C1612068C16921F00401C161DD
:101DC0002068C1692A69114311E0206800F060FDB4
:101DD0002068C16941F40061C1612068C16921F4D2
:101DE0008061C1612068C1692A6941EA0221C1613B
:101DF000ACE710B5040003D094F83D0010B107E043
:101E0000012010BD002084F83C00204600F01EF8A0
:101E1000022084F83D00211D206800F01BFC0120F9
:101E200084F8460084F83E0084F83F0084F84000BF
:101E300084F8410084F8420084F8430084F84400A8
:101E400084F8450084F83D00002010BD70477047BD
:101E50007047704770477047F8B5016804460868D6
:101E6000CA684B6910F00F0F4FF0000559D003F00E
:101E7000010602F49077374365D0C10705D0D1053C
:101E800003D5216C41F001012164410705D5D90733
:101E900003D0216C41F002012164810705D5D907E7
:101EA00003D0216C41F004012164010707D502F041
:101EB0002001314303D0216C41F008012164216CE1
:101EC00000293AD0800604D5900602D5204600F0BD
:101ED00060FD20684069216CC0F38010090700D4C0
:101EE00060B3204600F02EFD20684069400621D5F1
:101EF0002068143050E8001F21F0400140E8001233
:101F0000002AF5D1A06BA8B16C490165A06BFEF762
:101F100074FE002811D0A06B016D01B0BDE8F04047
:101F2000084783060FD593060DD52046BDE8F84037
:101F300000F02FBD2046FFF78EFFF8BD2046FFF7CB
:101F40008AFF2564F8BD266B2023012E79D1C606B1
:101F500077D5D60675D50868486800904869400668
:101F600040D5A16B086840680004000CEAD0A28D3F
:101F70008242E7D9E085C869B0F5807F2DD020681E
:101F80000C3050E8001F21F4807140E80012002A54
:101F9000F5D12068143050E8001F21F0010140E81D
:101FA0000012002AF5D12068143050E8001F21F0FB
:101FB000400140E80012002AF5D184F83E30256344
:101FC00020680C3050E8001F21F0100140E800129A
:101FD000002AF5D1A06BFEF7C7FDA08DE18D401A58
:101FE00081B229E0A08DE18D401A81B2E08D0028F8
:101FF000A8D00029A6D020680C3050E8002F22F489
:10200000907240E80026002EF5D12068143050E888
:10201000002F22F0010240E80026002EF5D184F8BE
:102020003E30256320680C3050E8002F22F010026B
:1020300040E80023002BF5D12046FFF70BFFF8BD49
:10204000FFE705062BD5150629D594F83D00212874
:10205000F5D1A068B0F5805F01D12069B0B1206AE8
:10206000411C2162216800784860E08C401E000419
:10207000000CE084E3D12068C16821F08001C160D8
:102080002068C16841F04001C160D8E7206A00883B
:10209000C0F308004860206A801C2062E5E7400623
:1020A000CDD55006CBD5CA68204622F04002CA6082
:1020B00084F83D3000F007F9C1E700003529000839
:1020C00070B5040004D094F83D00002510B106E07E
:1020D000012070BD84F83C50204600F023F82420F5
:1020E00084F83D002068C16821F40051C160204699
:1020F00000F0B0FC2068016921F490410161206882
:10210000416921F02A0141612068C16841F4005110
:10211000C1602564202084F83D0084F83E00002042
:1021200070BD0000F0B587B0044614216846FEF784
:1021300030F92149206888423BD1204800240168B9
:1021400041F480110160006800F4801005901B4884
:102150001038016841F004010160016801F00401D8
:102160000591016841F0080101600068022500F056
:10217000080005904FF48050CDE9000502AA03261F
:10218000082782E8D00069460D48FEF7C7FE042004
:10219000CDE9000502AA694682E8D0000948FEF7A9
:1021A000BDFE002211463520FFF714F83520FFF759
:1021B00003F807B0F0BD0000005000404038024076
:1021C00000080240000C024090F83E30202B0ED157
:1021D00059B152B190F83C30012B08D0012380F85E
:1021E0003C300023036300F0BBBC01207047022099
:1021F0007047000010B5042204490548FFF7E4FFCA
:10220000024901207839087010BD000078000020D4
:10221000B80100202DE9F843044690F83D001F4620
:1022200016460D4620284CD1C5B1BEB194F83C00ED
:10223000012846D0012084F83C004FF00008C4F883
:102240004080212084F83D00FEF756FFA684814699
:10225000E684A068B0F5805F03D004E00120BDE80B
:10226000F883206928B12E465FF0000584F83C8091
:102270000EE00026FAE78021204600F08EFCA0B98F
:10228000AEB116F8010B21684860E08C401EE08476
:10229000E08C4B464FF0000200970028EBD14FF046
:1022A0004001204600F079FC30B10320D7E735F833
:1022B000020BC0F30800E6E7202084F83D00002070
:1022C000CDE70220CBE77047FEE700007FB5002195
:1022D0002748009101910291244A03910260012450
:1022E0004FF480320461C0E90121017680F82010AA
:1022F000204AC0E90A210425C561C16080F8301078
:102300004461FEF7F3FA08B172B6FEE70A20CDE9A0
:1023100000040520029069461548FEF72DFA08B121
:1023200072B6FEE70B2000900220CDE90105694658
:102330000F48FEF721FA08B172B6FEE70C200090B4
:102340000320019069460A48FEF716FA08B172B6F2
:10235000FEE70D20CDE9000569460548FEF70CFAB9
:10236000002801D072B6FEE77FBD000000200140CA
:10237000980000200100000F7FB50024154800944C
:10238000019402941249039401604FF48031C0E932
:1023900001140461047680F820400F49C0E90A1452
:1023A0000125C561C46080F830404561FEF79EFAA2
:1023B00008B172B6FEE70A20CDE90005694602942D
:1023C0000448FEF7D9F9002801D072B6FEE77FBDB8
:1023D00000210140E00000200100000F70B586B030
:1023E00014216846FDF7D5FF1A480024016841F022
:1023F00004010160016801F004010591016841F0E8
:1024000002010160016801F002010591016841F0DB
:10241000080101600068012500F0080000950590A2
:102420004FF48810CDE901040B4E69463046FEF7A3
:1024300075FD14208DE8310069463046FEF76EFDCB
:10244000002211460620FEF7C5FE0620FEF7B4FE68
:1024500006B070BD303802400004024010B586B0AE
:10246000002417480094019402940394049413499F
:1024700005940160B321C0E901144FF6FF71C0E972
:10248000031444618461FFF73FFA08B172B6FEE7B6
:102490004FF48050009069460948FFF7CBFA08B125
:1024A00072B6FEE7049404A905480594FFF7E4F921
:1024B000002801D072B6FEE706B010BD0000014052
:1024C0002801002030B58DB00024079408940994A9
:1024D0000A940B941C2168460C94FDF75AFF2A4D70
:1024E00028482860B320C5E901040A20C5E903048F
:1024F0002846AC61FFF708FA08B172B6FEE74FF460
:102500008050079007A92048FFF794FA08B172B6E7
:10251000FEE71D48FFF76DFC08B172B6FEE7082123
:102520001948FFF7D4FB08B172B6FEE70B940BA96C
:1025300015480C94FFF7A0F908B172B6FEE76020C9
:102540000090012001900220029008226946049424
:102550000D48FFF7E8FB08B172B6FEE7012208213B
:10256000286800F0DBF829686FF00100086128682E
:10257000C16841F00101C1600348FFF77DFB0DB068
:1025800030BD00000004004070010020FEE7FEE7BF
:1025900070477047FEF7B6BD30B593B0342168463A
:1025A000FDF7F7FE14210DA8FDF7F3FE20480025E6
:1025B000016841F080510160006800F08050129085
:1025C0001C48016841F4404101600068022400F4A5
:1025D0004040129001200390102004900094069433
:1025E0000820CDE90750B420CDE909040B946846D2
:1025F0000C94FEF75FFF08B172B6FEE7FEF71CFE13
:1026000008B172B6FEE70DA90F2081E831004FF442
:10261000A05010904FF48050119005210DA8FEF7A6
:1026200043FE002801D072B6FEE713B030BD0000B3
:1026300040380240007000400248016841F47001D7
:102640000160704788ED00E00148FFF762BA0000C2
:1026500070010020F0B50268254C264D264E274F0C
:10266000274B4FF0804CA04209D0604507D0A842CC
:1026700005D0B04203D0B84201D0984204D122F034
:10268000700E4A6842EA0E02A0421BD0604519D083
:10269000A84217D0B04215D0B84213D0984211D0FA
:1026A000184DA8420ED0184DA8420BD0174DA84285
:1026B00008D0174DA84205D0164DA84202D0164D9D
:1026C000A84203D122F44075CA682A434D6922F01A
:1026D00080022A4302608A68C2620A688262A0425B
:1026E00001D0984201D10969016301214161F0BD26
:1026F000000001400004004000080040000C0040C1
:1027000000040140004001400044014000480140F5
:1027100000180040001C00400020004010B501F0EF
:102720001F030121046A99408C430462016A9A40A4
:102730001143016210BD10B5846842EA032224F4FB
:102740007F440A432243826010BD826822F07002F7
:102750000A4342F00701816070470000F0B5026A49
:1027600022F001020262036A42688469124E24F078
:1027700073050C682C4323F002058B682B430D4D29
:10278000A84201D0B04205D123F00807CB683B43F3
:1027900023F00403A84201D0B04205D14D6922F4D0
:1027A000407215438A692A434260846149684163E3
:1027B0000362F0BD0000014000040140F0B5026A70
:1027C00022F010020262026A436884690D6824F4F0
:1027D000E64444EA05248D6822F0200242EA05120C
:1027E0000F4D104EA84201D0B04206D1CF6822F062
:1027F000800242EA071222F04002A84201D0B04211
:1028000007D14D6923F4406343EA85038D6943EAA8
:10281000850343608461496881630262F0BD000002
:102820000000014000040140F0B5026A22F4807209
:102830000262026A4368C46922F4007224F07305DC
:102840000C68124E2C438D6842EA05220E4DA842B8
:1028500001D0B04206D1CF6822F4006242EA0722DA
:1028600022F48062A84201D0B04207D14D6923F41E
:10287000405343EA05138D6943EA05134360C4617D
:102880004968C1630262F0BD0000014000040140DC
:1028900030B5026A22F480520262046A4268C36957
:1028A0000D6823F4E64343EA05238D6824F40054BD
:1028B00044EA0534084DA84202D0084DA84204D18C
:1028C0004D6922F4804242EA85124260C361496840
:1028D0000164046230BD00000000014000040140BA
:1028E00010B5036A046A24F001040462846924F0C8
:1028F000F00444EA021423F00A020A4384610262EB
:1029000010BD10B5036A23F0100303628369046AE3
:1029100023F4704343EA023224F0A00343EA011196
:102920008261016210BD00000148FFF795BA000006
:10293000B801002010B5806B0021C185C184FFF76C
:102940008AFA10BD01680C3151E8002F22F4907210
:1029500041E80023002BF5D10168143151E8002F24
:1029600022F0010241E80023002BF5D1016B01297F
:1029700009D101680C3151E8002F22F0100241E822
:102980000023002BF5D1202180F83E1000210163A7
:10299000704708B590F83E10222901D0022008BDEA
:1029A00082684FF480539A4201D1016921B1816A52
:1029B0009A421BD04AB10AE00268816A5268C2F3A7
:1029C00008020A80816A891C08E0026972B1026803
:1029D000526802F07F020A70816A491C8162C18DCF
:1029E000491E0904090CC18503D019E00268526828
:1029F000F1E70168CA6822F02002CA600168CA686B
:102A000022F48072CA6001684A6922F001024A61B8
:102A1000202180F83E10016B012903D0FFF7EAFB6B
:102A2000002008BD0021016301680C3151E8002F2E
:102A300022F0100241E80023002BF5D101680A685A
:102A4000D20602D50A6849680091818DFFF702FA23
:102A5000E6E7000070B5044600680169E26821F409
:102A60004051114301612169A068E269084361692D
:102A7000114308432168CA6849F20C639A43024330
:102A8000CA6020684169A26921F440711143416123
:102A900031492068884202D03049884202D1FEF78D
:102AA000ADFC01E0FEF79AFCE269002319216425E0
:102AB0003226B2F5004F626828D0A0FB0101930FC7
:102AC0009200FDF7EFFB0146B0FBF5F06FF0180246
:102AD000504301EB800006EB0010B0FBF5F000F076
:102AE000F002B1FBF5F002EB0012B1FBF5F06FF074
:102AF0001803584301EB800006EB0010B0FBF5F023
:102B000000F00F0021681044886070BDA0FB010137
:102B100092185B41FDF7C6FB0146B0FBF5F00201E0
:102B2000B1FBF5F06FF01803584301EB800006EBA2
:102B3000C000B0FBF5F000F0F80002EB4002B1FB82
:102B4000F5F0584301EB800006EBC000B0FBF5F058
:102B500000F00700D6E7000000100140001401401B
:102B600081628285C28500210164222280F83E2094
:102B700080F83C10016921B10168CA6842F4807292
:102B8000CA6001684A6942F001024A610068C1688E
:102B900041F02001C160002070472DE9F0419846C6
:102BA00017460E460446069D27E0681C25D02DB129
:102BB000FEF7A2FAA0EB0800A8421ED920680C304C
:102BC00050E8001F21F4D07140E80012002AF5D12E
:102BD0002068143050E8001F21F0010140E8001285
:102BE000002AF5D1202084F83D0084F83E00002022
:102BF00084F83C000320BDE8F0812068006836EAD4
:102C0000000004D00020B842CFD00020F3E701201C
:102C1000F9E7FEE70907090E002804DB00F1E020D0
:102C200080F80014704700F00F0000F1E02080F8F9
:102C3000141D70472DED0A8B82B0FEF76BFAFFF77B
:102C4000ABFCFFF7CBFBFF480025016841F4800196
:102C5000016000682A4600F4800000902946382070
:102C6000FEF7B8FA3820FEF7A7FAFFF72FFBF74870
:102C7000F54901604FF4E131C0E901150C21C5604F
:102C8000C0E904518561C561FFF71AFA08B172B64F
:102C9000FEE7FFF771FBFFF715FCFFF7DFFBEB48E3
:102CA0009038FEF78BFE0422E949E848FFF78CFADA
:102CB000DFF898B3DFF89CA30BF1600B9FEDE6CB38
:102CC000DFF88C839FEDE68B9FEDE79B9FEDE8ABF4
:102CD000E94F0BF5A079A8F178083868C0064DD403
:102CE000D8F83800022849D1D8F8640002282AD13F
:102CF000D9F800104846D9F8042011444908C9F809
:102D00000810D9F80810E1B1806800EE100AB8EE9A
:102D1000400A10EE100A00F07BFD41EC100B51EC64
:102D2000180B53EC102B00F0DDFA53EC192B00F0CC
:102D300071FC53EC1A2B00F0D5FA00F02BFCC8F80C
:102D40002C00C8F86450DAF82400D8F8241088421F
:102D500014D3D8F86400012810D1D8F82800032132
:102D6000B0FBF1F1C5480160B84848380068016817
:102D700041F0010101600220C8F86400D8F8640045
:102D800000284FD1DAF824105046D8F83C30D8F853
:102D90006C201A44914245D3406AC8F86C00D8F8B8
:102DA0006800052835D2DFE800F003183E536800BC
:102DB000A74870210838017010214170D8F83010F0
:102DC000090E8170D8F83010090CC170D8F8301095
:102DD000090A0171D8F8301013E09D4870210838B5
:102DE000017020214170D8F83410090E8170D8F894
:102DF0003410090CC170D8F83410090A0171D8F8E0
:102E00003410417192490A23082208398F48FFF78C
:102E100001FAD8F86800401CC8F868000528BAD341
:102E2000C8F868500EE28A487021083801703021D5
:102E30004170D8F82C10090E8170D8F82C10090CAC
:102E4000C170D8F82C10090A0171D8F82C10D8E7F5
:102E50007F4870210838017040214170D8F828104F
:102E6000090E8170D8F82810090CC170D8F8281004
:102E7000090A0171D8F82810C3E77548702108388D
:102E8000017050214170D8F82410090E8170D8F8D3
:102E90002410090CC170D8F82410090A0171D8F85F
:102EA0002410AEE7694904225031A1F5B870FDF74E
:102EB000B1FD1FE0D9F808104846D9B1806800EE8E
:102EC000100AB8EE400A10EE100A00F0A1FC41EC26
:102ED000100B51EC180B53EC102B00F003FA53ECD1
:102EE000192B00F097FB53EC1A2B00F0FBF900F0C4
:102EF00051FBE062206A0028DCD0256213215A468B
:102F0000002002EB011300BF03EB800656F8106CA3
:102F100043F82060401C0328F6DD491EF0D54B4BDA
:102F2000503319681160012053F8201042F8201026
:102F3000401C0328F8DD1321002002EB011600BF1E
:102F400006EB800C5CF810CC46F820C0401C03282F
:102F5000F6DD491EF0D519681160012053F82010E4
:102F600042F82010401C0328F8DD65655FF0000082
:102F700002EB00110968636D19446165401C142857
:102F8000F6DB616D1420B1FBF0F16164A5650021F1
:102F900002EB01135B68A66D3344A365491C142939
:102FA000F6DBA16DB1FBF0F1A164E5655FF0000116
:102FB00002EB01139B68E66D3344E365491C142959
:102FC000F6DBE16DB1FBF0F1E16425665FF0000135
:102FD00002EB0113DB68266E33442366491C142977
:102FE000F6DB216EB1FBF0F02065606C00EE100A9C
:102FF000B8EE400A10EE100A00F00AFC9FED201B0C
:1030000053EC112B00F006FB00F0C4FA2063A06C17
:1030100000EE100AB8EE400A10EE100A00F0F8FBBD
:103020009FED191B53EC112B00F0F4FA00F0B2FAEB
:103030006063E06C00EE100AB8EE400A10EE100A71
:1030400026E000003038024000500040B801002067
:103050007800002000000140943889933889F33FBC
:103060000000000080842E410000000000004E405F
:103070000000000000002440100402402C04004026
:10308000588115588115F83F6768866668866E40D6
:1030900000F0BEFB9FED880B53EC102B00F0BAFA4A
:1030A00041EC1B0BD9F808004E4600EE100AB8EEB2
:1030B000400A10EE100A00F0ABFB9FED811B53ECB1
:1030C000112B00F00FF953EC1B2B00F0A3FA00F0CA
:1030D00061FA6062A0680128206C48D000F087FA8D
:1030E00041EC1B0B206D00EE100AB8EE400A10EE0A
:1030F000100A00F08DFB9FED741B53EC112B00F0B8
:10310000F1F853EC1B2B00F085FA53EC1C2B00F06C
:1031100081FA41EC1B0BB06800EE100AB8EE400AD1
:1031200010EE100A00F074FB9FED691B53EC112B9D
:1031300000F0D8F853EC1B2B00F06CFA00F02AFAE0
:10314000A0623868400769D463480168416001683B
:1031500042681144490881606268E168E36A521A72
:103160009A421CD9616921646168E26A22E000EE3A
:10317000100AB8EE400A10EE100A00F049FB41ECCC
:103180001B0B206D00EE100AB8EE400A10EE100A7C
:1031900000F03EFB53EC1C2B00F03CFACAE76368DE
:1031A0002269D4F82CC01344634506D2A169216476
:1031B000E16A6268891A016032E06368591AE36A59
:1031C000994212D26168E369C91AE36A99420CD93B
:1031D0006168E26A891A0160806864302064216C49
:1031E000606981421CD920641AE061681144E26A76
:1031F000914215D96168E2691144E26A91420FD2A5
:10320000E16A6268891A01608068C0F16400206424
:10321000206C6169884203D9A069E4E79620E2E75F
:103220003868C00601D4A06B98B13868C00602D4D3
:10323000A06B012810D03868C00602D4A06B022809
:1032400000D0A563D8F86400444600287FF445AD5B
:1032500028E60120A063F5E72149204808601E48C0
:103260008C380068016841F00101016030687168C4
:1032700008444008B060B0680028E3D0B06800EEB1
:10328000100AB8EE400A10EE100A00F0C1FA41EC44
:10329000100B51EC180B53EC102B00F023F853ECEF
:1032A000192B00F0B7F953EC1A2B00F01BF800F0C3
:1032B00071F9E062C6E700001CC2211CC221CC3FAC
:1032C0000000000000408F40000000000000594056
:1032D000000000000088C340FC01002010EB090042
:1032E0002C0400402DE9C04130B4DFF8A0C23CEA14
:1032F000111418BF3CEA131400F0EC8081EA0305B6
:103300001CEA111444EAD57418BF1CEA131500F026
:10331000C780A4EB05044FF0004545EAC12145EA0A
:10332000C32341EA505143EA525304F17F74994256
:1033300004F500344FEAC0204FEAC22208BF904291
:1033400000F09C804FEA13650FF24016765D4FEA5D
:10335000134506FB05F7C7F1807706FB07F74FEA31
:10336000D737A7FB03687642C8F58038A7FB06CE9F
:1033700038BFA8F1010807FB08E64FF0000EA6FBD6
:10338000028CE6FB03CEDCF1000CCEF1004E38BF20
:10339000AEF1010EA6FB0C584FF000074FF00005F0
:1033A000E6FB0E87A1FB08C6A0FB07CE16EB0E06B8
:1033B00045F10005E1FB076515F1E04E7EBFA4F580
:1033C00080345FEA46066D4116F1800745F100053D
:1033D0004FEA17274FEA066647EA0567A6F1DE4679
:1033E000B6F1805F4FEA15251FD9384624F0010C4D
:1033F00005EBC471BCF1FE6F01EB0C1102D8F0BCFF
:10340000BDE8008124425CBF01F5801E9EEAC47FB6
:1034100002D4F0BCBDE80081244238D4F0BCA1F154
:10342000C041BDE8004100F0EDB94FEAD22242EAC6
:1034300043524FEAD323A7FB02864FEAD02040EA4B
:10344000415007FB03661EEA0E0F4FEAD12105FB30
:10345000026658BFA6EB0056B6EB00564FEA520E76
:103460004EEAC37E18EB0E0E56EB530EBDD518EB8D
:1034700002085E417F1C55F10005B6E74FF4801548
:103480004FF000074FF000064FF00008ADE7F0BC2A
:103490004FF0000001F1C04101F00041BDE80081A2
:1034A00011EA0C1F0CEA131500D00CE013EA0C1FF4
:1034B00000F025804FF00000F0BC81EA030101F02C
:1034C0000041BDE80081F0BCBDE8004181EA030194
:1034D00000F098B9F0BCBDE8004170B500F044F9C7
:1034E000097EFC3E00F007B881EA03014FF00000BE
:1034F00001F00041704781EA030100F083B9F0BC9C
:10350000BDE800414FF0000021497047FFFDFBF985
:10351000F7F5F4F2F0EEEDEBE9E8E6E4E3E1E0DE06
:10352000DDDBDAD8D7D5D4D3D1D0CFCDCCCBCAC878
:10353000C7C6C5C4C2C1C0BFBEBDBCBBBAB9B8B79F
:10354000B6B5B4B3B2B1B0AFAEADACABAAA9A8A892
:10355000A7A6A5A4A3A3A2A1A09F9F9E9D9C9C9B60
:103560009A9999989797969595949393929191900B
:103570008F8F8E8E8D8C8C8B8B8A8989888887879C
:103580008685858484838382828181800000FF0711
:103590000000F87F4FEA1153A3F58063D3F11E03B7
:1035A000A8BFD3F1200C08DB4FF0004242EAC12251
:1035B00052EA505232FA03F0704709420BD4102BF2
:1035C000C4BF0020704703F5787CBCF1FF3F05D0F5
:1035D0004FF0FF3070474FF00000704770B500F0BB
:1035E000C3F800BF4992248000207047F0E7B0FA8A
:1035F00080F310FA03F10AD0C3F11D0303F58063D1
:103600004FEA41504FEA035202EBD12170474FF08D
:1036100000007047DFF848C170B51CEA111E1EBFDC
:103620001CEA13159EEA0C0F95EA0C0F00F06F8050
:1036300081EA030423EA4C134EEAD47E21EA4C11BA
:1036400041F4801143F48013AE44A1FB024CA0FB73
:103650000365AEF17F7E361955EB0C05A1FB034CDB
:103660004CF10003A0FB021C16EB0C06654153F164
:103670000003094218BF46F0010613F4007F0BD186
:103680004FEA03314FEA0530340341EA155140EA6D
:1036900016506FF003020AE04FEAC3214FEAC5203B
:1036A000F40241EA555140EA56506FF0020202EB33
:1036B0002E4201EB025585EACE710AD05FEA440C36
:1036C00018BF24F0004450F1000041F1000120EA4D
:1036D000D47040F2FE7C624500D270BDA84214BF97
:1036E0004FF080444FF04044002E08BF0024BEF14C
:1036F000806FA8BFA1F1C041BDE8704080F2828018
:103700004FF0000001F1C04101F0004170479EEA16
:103710000C0F0CEA131518BF95EA0C0F06D04FF0EA
:10372000000081EA030E0EF0004170BD00F01CF8AD
:103730008900013E00F007B800F009B84FEA430CD9
:103740005FEA5C5C08D081EA030100F05BB84FEAF5
:10375000410C5FEA5C5CF6D14FF000000149704714
:103760000000FF070000F87F0EF1020E2EF0030E9E
:103770005EF8046B364205D4012A43EB030515F5C8
:10378000001F12D8012841EB010C1CF5001F0CD8BA
:103790000ED14FEAD17C15F5001F0CEB4C0C0CF14F
:1037A000020C08BF4CEBD37C04E04FF0080C01E0A6
:1037B0004FEAD37C0CEB4C0526FA05F606F007061B
:1037C000B6F1040C06D20EEB860CBDE870404CF04E
:1037D000010C6047DFE80CF0090B02024FF00041DA
:1037E0004FF00000A1F5002170BD194610460128D8
:1037F00051EB010418BFD4F5001484BF002001F080
:10380000004170BD0808A0F500114FEA3101704772
:1038100043004FEAD30C4FEA3C0C43401FBF400724
:103820000CF1605113F0FE4F70471CF0006F03D194
:1038300000200CF0004170470CF0004343EA507048
:1038400010B540EACC0000F00EF800BF0000009276
:103850004FEA0001FFF7D6BF4FF000414FF00000E4
:10386000A1F5002170470EF1020E2EF0030E5EF856
:10387000044B244204D44FEA4102B2F17F4F11D8E5
:103880004FEA4003B3F17F4F0CD80ED14FEAD07C02
:10389000B2F17F4F0CEB4C0C0CF1020C08BF4CEB5F
:1038A000D17C04E04FF0080C01E04FEAD17C0CEB36
:1038B0004C0324FA03F404F00704B4F1040C06D218
:1038C0000EEB840CBDE810404CF0010C6047DFE8C3
:1038D0000CF0070802024FF00040A0F5800010BD78
:1038E0000846420018BFD2F1807288BF00F0004045
:1038F00010BD4FF04070E1EE100A70470006101640
:103900000006101600000000000000000102030481
:103910000607080900000000010203043C39000802
:10392000000000209800000000020008D4390008C0
:1039300098000020900900001C0200080000000010
:10394000DC050000000000006400000064000000CE
:1039500096000000000000000000000000000000D1
:103960000000000000000000000000000000000057
:103970000000000000000000E8030000000000005C
:103980000000000000000000000000000000000037
:103990000000000000000000000000000000000027
:1039A0000000000000000000000000000000000017
:1039B00000000000000000000000000064000000A3
:1039C00000000000010000001000000000000000E6
:0439D0000024F400DB
:04000005080001C529
:00000001FF
