:020000040800F2
:10000000700A002065020008432400087D210008D2
:100010004124000811060008152A0008000000000D
:10002000000000000000000000000000472400085D
:10003000C506000800000000452400084924000807
:100040007F0200087F0200087F0200087F0200088C
:100050007F0200087F020008C90600087F0200082E
:100060007F0200087F0200087F0200087F0200086C
:100070007F0200087F0200087F0200087F0200085C
:100080007F0200087F0200087F0200087F0200084C
:100090007F0200087F0200087F0200087F0200083C
:1000A0007F0200087F0200087F0200087F0200082C
:1000B0007F020008FD2400087F0200087F0200087C
:1000C0007F0200087F0200087F0200087F0200080C
:1000D0007F0200087F0200087F0200087F020008FC
:1000E0007F0200087F0200087F0200087F020008EC
:1000F0007F0200087F0200087F0200087F020008DC
:100100007F0200087F0200087F0200087F020008CB
:100110007F020008DD2700087F0200087F02000838
:10012000150600087F0200087F0200087F02000811
:100130007F02000800000000000000007F020008AD
:100140007F0200087F0200087F0200087F0200088B
:100150007F0200087F0200087F0200087F0200087B
:100160007F0200087F0200087F0200087F0200086B
:100170007F0200087F0200087F02000800000000E4
:10018000000000007F0200080000000000000000E6
:100190007F02000800000000000000007F0200084D
:1001A0000000000000000000000000007F020008C6
:1001B0007F0200087F0200087F0200087F0200081B
:1001C0007F02000800F002F800F03CF80AA090E876
:1001D000000C82448344AAF10107DA4501D100F002
:1001E00031F8AFF2090EBAE80F0013F0010F18BF93
:1001F000FB1A43F001031847F437000014380000DD
:10020000103A24BF78C878C1FAD8520724BF30C842
:1002100030C144BF04680C60704700000023002414
:1002200000250026103A28BF78C1FBD8520728BF06
:1002300030C148BF0B6070471FB503F0C2FB1FBD44
:1002400010B510BD00F0CFF81146FFF7F5FF02F032
:1002500093FC00F0EDF803B4FFF7F2FF03BC00F0ED
:10026000F5F800000948804709480047FEE7FEE727
:10027000FEE7FEE7FEE7FEE7FEE7FEE7FEE7FEE756
:1002800004480549054A064B70470000ED24000864
:10029000C501000870040020700A002070060020CC
:1002A0007006002053EA020C00F069802DE9F04B43
:1002B0004FF00006002B1FBFB3FA83F503FA05F4D5
:1002C00024FA05F65E4012BF1643B2FA82F502FA2E
:1002D00005F4C5F120051EBF22FA05FC44EA0C0412
:1002E000203556EA044C4FEA144418BF641C4FF002
:1002F00000084FF00009904271EB030C39D300293C
:1003000019BFB1FA81F701FA07F6B0FA80F700FADF
:1003100007F6C7F120071EBF20FA07FC46EA0C06C5
:100320002037B6FBF4FCA7EB0507103F07F01F0BC7
:10033000CBF120060CFA0BFB2CFA06F644BFB346B1
:100340000026202FA4BF5E464FF0000B5BEA060C90
:1003500008BF4FF0010B19EB0B09ABFB027C48EB1C
:100360000608C01B06FB02CC0BFB03CC71EB0C0197
:10037000C1E70B46024641464846BDE8F08B13B53F
:100380004FF000004FF00001AFF30080BDE81C40CB
:1003900070474FF0000200B5134694469646203948
:1003A00022BFA0E80C50A0E80C50B1F12001BFF42E
:1003B000F7AF090728BFA0E80C5048BF0CC05DF894
:1003C00004EB890028BF40F8042B08BF704748BFE2
:1003D00020F8022B11F0804F18BF00F8012B704756
:1003E000704770477047754600F02CF8AE46050020
:1003F0006946534620F00700854618B020B5FFF740
:100400003FFFBDE820404FF000064FF000074FF0DF
:1004100000084FF0000B21F00701AC46ACE8C00922
:10042000ACE8C009ACE8C009ACE8C0098D4670472B
:1004300010B50446AFF300802046BDE81040FFF73A
:100440000ABF0000004870470C0400200149182032
:10045000ABBEFEE726000200704710B50146806B78
:10046000026C12F0500F05D0026CD20626D500F0B7
:1004700014FA10BD016C41F40071016401688A68CE
:1004800012F0405F17D1027EAAB9CA6A12F4700F47
:1004900002D08A6852050ED44A6822F020024A60CF
:1004A000016C21F480710164016CC90403D4016CF6
:1004B00041F00101016400F0E9F910BD806BC26CEC
:1004C000BDE810400846104710B5806B402101641C
:1004D000416C41F00401416400F0DFF910BD10B53A
:1004E000806B00F0D9F910BD464910B54A6822F476
:1004F00040324A604A6843681A434A6001684A6861
:1005000022F480724A6001684A68036942EA032261
:100510004A6001684A6822F040724A6001684A688D
:1005200083681A434A6001688A6822F400628A601C
:1005300001688A68C3681A438A60816A6FF07062D2
:10054000D14201688A6822F070628A6001688A6814
:100550000CD0836A1A438A6001688A6822F040528C
:100560008A6001688A68C36A1A4301E022F0405237
:100570008A6001688A6822F002028A6001688A68DB
:10058000037E42EA43028A6090F820100029016845
:100590004A680FD042F400624A6001684A6822F457
:1005A00060424A6001684A68174C436A04EB43336F
:1005B0001A4301E022F400624A600168CA6A22F428
:1005C0007002CA620168CA6A838B104C04EB035341
:1005D0001A43CA6201688A6822F400728A6001685C
:1005E0008A6890F8303042EA43228A6001688A685B
:1005F00022F480628A6001688A68406942EA802049
:10060000886010BD0023014000E0FFFF0000F0FF04
:10061000FEE70000014800F0DBBA0000AC03002058
:1006200001681823CAB2103AB2FBF3F2054B6FF31C
:100630000901032A9B5CC36500D9091D8165084631
:1006400070470000CC39000810B5014600208B69C6
:100650008A6A4FF0C07453B1B3F5005F15D072B120
:10066000012A0CD0022A0AD0032A09D104E01AB1C7
:10067000012A06D0022A03D1C96AC90100D5012086
:1006800010BDC96AA142FAD010BD002AF7D0012AD4
:10069000F2D0022AF3D0032AF3D010BD30B504689B
:1006A000256825F480252560046863608368402BF5
:1006B000036803D099600068C26030BD9A6000682A
:1006C000C16030BD704700001048416A104A116097
:1006D000002141620F4908680F4AC306106801D41F
:1006E000022805D00968C9060CD4012804D009E005
:1006F0000A490120086005E009480068642801D91A
:1007000002201060012000F0D5BB00000000014075
:100710007C000020100402403400002074000020FF
:100720002800002072B6FEE778B50024009490F807
:100730003C20012A19D0012280F83C200A680723B6
:100740000568092A13D9EE680A3A02EB420293407F
:100750009E43EE600B788A680A3B03EB43039A40A2
:100760000368DD682A43DA6010E0022078BD2E6954
:1007700002EB420293409E432E610B788A6803EBA2
:1007800043039A4003681D692A431A614A681F237C
:10079000072A13D205686E6B521E02EB8202934049
:1007A0009E436E630A8893B20A79521E02EB82025C
:1007B00093400268556B2B43536327E005680D2A6D
:1007C00012D22E6BD21F02EB820293409E432E6305
:1007D0000B790A88DB1F92B203EB83039A4003680C
:1007E0001D6B2A431A6311E0EE6A0D3A02EB820296
:1007F00093409E43EE620B790A880D3B92B203EB65
:1008000083039A400368DD6A2A43DA621B4B05685A
:10081000194A9D420AD10D68122D07D1556825F459
:1008200000055560556845F48005556005689D4292
:100830001DD1134D0B68AB4201D0112B17D153685A
:1008400023F480035360536843F400035360096842
:10085000A9420CD10B490C4A0968B1FBF2F101EB3A
:100860008101490000E0491E00910029FBD180F878
:100870003C40002078BD00000023014000200140E2
:1008800012000010A400002040420F000149012086
:1008900088617047000000207047704770B5040001
:1008A0004FF0000503D0206C002610B107E00120B6
:1008B00070BD204600F01CF8666484F83C60206C33
:1008C000C00610D4206C20F4885040F00200206450
:1008D0002046FFF709FE6664206C20F0020040F01D
:1008E0000100206400E0012584F83C60284670BDCA
:1008F000F0B587B0064614216846FFF74AFD2C493B
:10090000DFF8A8C037680025294814390F220323CF
:10091000284C674530D1076847F480770760006846
:1009200000F480700590086840F0040008600868D2
:10093000694600F0040005908DE82C00204600F088
:10094000C5FA1E4C1C48C4E900050015A560C4E9A1
:100950000350800060618000A0618011E0610002AE
:10096000C4E90805204600F003FA08B1FFF7DAFEF3
:10097000B463A66307B0F0BD114EB742FAD1066862
:1009800046F400760660006800F400700590086880
:1009900040F0040008600868694600F00400059013
:1009A0008DE82C00204600F091FAE3E7002001409A
:1009B000443802400008024010640240AC030020AA
:1009C00000210140F8B5044600200E46009094F83E
:1009D0003C10012907D0012184F83C1021688B6864
:1009E000DB0702D011E00220F8BD8B6843F0010361
:1009F0008B604049404B0968B1FBF3F101EB4101C9
:100A000000E0491E00910029FBD121688B68DB05BD
:100A100003D58B6823F480738B6021688B68DB07B8
:100A20005DD0236C40F20165AB4343F480732364D3
:100A30004968490505D5216C21F4005141F48051E4
:100A40002164216CC90404D5616C21F00601616444
:100A500000E0606484F83C00A16B2948274DC8631E
:100A6000A16B28480864A16B2748C86421686FF00F
:100A7000220008602068416841F080614160206880
:100A8000816841F4807181602168134632464C319F
:100A9000A06B00F0D7F968681C49C006206806D032
:100AA000884224D1816811F0405F13D01FE0884252
:100AB000F8D0174A904203D1D1F80423D206F1D0DE
:100AC000144A904213D1D1F8041301F01F011029E8
:100AD000E8D30CE0816841F08041816007E0206C40
:100AE00040F010002064606C40F001006064002061
:100AF000F8BD0000A400002040420F000023014088
:100B00005B040008DF040008C9040008002001405D
:100B100000210140002201402DE9F0410446876D8B
:100B200000F0C2FA064694F835000025022806D0E7
:100B30008020606584F834500120BDE8F081206891
:100B4000016821F0160101602068416921F08001EF
:100B50004161206C08B9A06C20B12068016821F0C7
:100B6000080101602068016821F0010101600CE0CA
:100B700000F09AFA801B052807D920206065032021
:100B800084F8350084F83450D7E720680068C0073F
:100B9000EED194F85C103F208840B860012084F8C2
:100BA000350084F834500020C7E790F8351002294A
:100BB00003D08021416501207047052180F8351060
:100BC0000068016821F00101016000207047000009
:100BD0002DE9F84304464FF00009CDF80090634832
:100BE0004FF41651A56D0068B0FBF1F72E6894F82C
:100BF0005C10082000FA01F131420FD021680A6828
:100C000052070BD50A6822F004020A6094F85C10BF
:100C10008840A860606D40F00100606594F85C1049
:100C20004FF0010808FA01F0304208D02168496904
:100C3000090604D5A860606D40F00200606594F874
:100C40005C1004208840304208D021680968890778
:100C500004D5A860606D40F00400606594F85C10F5
:100C600010208840304218D021680968090714D53F
:100C7000A86020680168490304D50068000308D50E
:100C8000A16C07E00168C90503D4016821F00801DF
:100C90000160216C09B12046884794F85C1020203F
:100CA0008840304231D021680968C9062DD5A86036
:100CB00094F8350005282068016806D0490347D517
:100CC000006800031DD4616C1CE021F01601016076
:100CD0002068416921F080014161206C08B9A06C55
:100CE00020B12068016821F00801016094F85C10CF
:100CF0003F208840A86084F8358084F83490216DC6
:100D00001FE0E16B09B120468847606D00282BD0B9
:100D1000606DC00714D0052084F835002068016894
:100D200021F0010101600098401C0090B84203D8F6
:100D300020680068C007F6D184F8358084F83490C4
:100D4000E16C002910D001B02046BDE8F04308470F
:100D50000168C905D5D4016821F01001016084F84B
:100D6000358084F83490CCE7BDE8F883A4000020F7
:100D70002DE9F041044600F097F906465CB10220E7
:100D800084F83500002584F834502068016821F08B
:100D9000010101600DE00120BDE8F08100F084F95F
:100DA000801B052805D920206065032084F83500C4
:100DB000F2E720680068C007F0D122681168204877
:100DC0000140D4E901031843D4E9033633431843FF
:100DD00063691843A3691843E3691843236A1843F6
:100DE0000843616A042903D1D4E90B13194308436A
:100DF000106020684069666A20F0070130460E43A3
:100E0000012704280CD1A06A0643E06A40B12046BD
:100E1000FFF71AFC20B14020606584F83570BAE70E
:100E2000206846612046FFF7FBFB94F85C203F21D9
:100E300091408160656584F835700020ACE7000062
:100E40003F8010F02DE9F0410446866D90F83400A3
:100E5000002501280DD0012084F8340094F8357065
:100E60000020012F07D084F8340002252846BDE871
:100E7000F0810220FBE7022784F835706065204688
:100E8000FFF70CFC94F85C103F208840B0602068AD
:100E9000016841F016010160206C20B120680168F2
:100EA00041F0080101602068016841F00101016022
:100EB000DCE77047044910B50A68024202D00860B6
:100EC000FFF7F7FF10BD0000143C01402DE9F84F7B
:100ED000DFF8ACA10022012403254FF00F090AF12D
:100EE000040BAAF1040E00BF0B6804FA02F63340AB
:100EF000B3426ED10F7907F00307012F01D0022F03
:100F000016D187684FEA420805FA08FC27EA0C0761
:100F1000D1F80CC00CFA08FC4CEA070CC0F808C069
:100F20004768B7430E79C6F3001696403E434660C5
:100F30000E79F643B6070AD0C6684FEA420C05FAA6
:100F40000CF7BE438F6807FA0CF73743C7600E797A
:100F500006F00306022E10D1D60800EB8608D8F85A
:100F6000206057074FEAD76C09FA0CF7BE430F69A8
:100F700007FA0CF73743C8F8207006684FEA420CAE
:100F800005FA0CF7BE430F7907F0030707FA0CF7D1
:100F9000374307604E6816F4403F6BD0394E3768D0
:100FA00047F480473760366822F0030706F480462E
:100FB0000096354E07EB060CDCF8086897074FEAF9
:100FC000177809FA08F7BE43304FB84202D100271C
:100FD0001FE04FE02E4FB84201D1012719E02D4FFD
:100FE000B84201D1022714E02B4FB84201D10327A8
:100FF0000FE02A4FB84201D104270AE0284FB84237
:1010000001D1052705E0274FB84201D1062700E0AE
:10101000072707FA08F73743CCF80878DAF80060B2
:101020005746D1F804C09E435FEACC2C00D51E433E
:101030003E60DBF800605F46D1F804C09E435FEA83
:101040008C2C00D51E433E60DEF800607746D1F858
:1010500004C09E435FEA8C3C00D51E433E60084FAF
:10106000083F3E68D1F804C09E435FEACC3C00D5FF
:101070001E433E60521C102AFFF436AFBDE8F88FC5
:10108000083C01404438024000300140000002406A
:101090000004024000080240000C02400010024020
:1010A00000140240001802400148806870470000A8
:1010B00098000020024881680278114481607047DE
:1010C000980000200B4810B5016841F400710160E0
:1010D000016841F480610160016841F48071016040
:1010E000032000F06FF80F2000F006F800F024F85D
:1010F000002010BD003C024070B50D4D04464FF479
:101100007A712878B1FBF0F00A490968B1FBF0F078
:1011100000F074FB48B9102C07D200222146501E63
:1011200000F030F800206C6070BD012070BD000040
:1011300098000020A40000200A4808B5016841F486
:1011400080410160006800F4804000900548001F65
:10115000016841F080510160006800F0805000900B
:1011600008BD000044380240002809DB00F01F02DF
:10117000012191404009800000F1E020C0F80011F9
:1011800070470000F0B40E4B1B680C46C3F30223FB
:10119000C3F10705042D00D90425191D072901D223
:1011A000002300E0DB1E012606FA05F1491E21405E
:1011B00099409E40761E16403143F0BC01F02BBC96
:1011C0000CED00E0064900F0070208684FF6FF0347
:1011D000184040EA0220034A1043086070470000AC
:1011E0000CED00E00000FA052DE9F843174801680E
:1011F00041F0805101600068154F00F080500126D9
:1012000000903E64FFF750FF05464FF47A78114C8A
:1012100005E000BFFFF748FF401B40450DD8606860
:10122000C003F7D57E64FFF73FFF0546464607E05B
:10123000FFF73AFF401BB04202D90320BDE8F88314
:1012400060688003F4D50020F8E7000040380240D1
:1012500000000E42007000402DE9F0470E460500E8
:1012600065D0DFF81481D8F80000F7B200F00F0065
:10127000B04207D288F80070D8F8000000F00F00E4
:10128000B04254D128683D4C810712D5400703D5A0
:10129000206840F4E05020602878000703D52068DB
:1012A00040F4604020602068A96820F0F000084306
:1012B00020602878C0072DD0304968680839012897
:1012C00012D0022813D0032811D0096889070029F9
:1012D0002DDA216821F0030101432160FFF7E4FECC
:1012E000814641F2883A0EE009688903EFE7096810
:1012F0008901ECE7FFF7D8FEA0EB0901514502D9BF
:101300000320BDE8F0872068696800F00C00B0EBAE
:10131000810FEFD1D8F80010404601F00F01B14223
:1013200007D90770006800F00F00B04201D001201B
:10133000E7E72878400705D52068E96820F4E05001
:10134000084320602878000706D52068296920F422
:10135000604040EAC100206000F038F82168084A87
:10136000C1F30311515CC840064908600648006893
:10137000FFF7C2FE0020C4E7003C024008380240EC
:10138000D4390008A40000209C000020044805492E
:1013900000680968044AC1F38221515CC840704763
:1013A000A400002008380240E43900080448054938
:1013B00000680968044AC1F34231515CC840704773
:1013C000A400002008380240E4390008224810B583
:1013D000006810F00C02214815D02149042A11D0D0
:1013E0001D4C241F082A0FD00C2A0CD12268236818
:1013F00002F03F025B0221D52068C0F38810A0FBF9
:10140000010120E0084610BD2268236802F03F0277
:101410005B0205D52068C0F38810A0FB010104E041
:101420002168C1F38811A1FB00010023FEF73AFFF8
:101430002168C1F30141491C49000AE02168C1F358
:101440008811A1FB00010023FEF72CFF2168C1F3E6
:101450000271B0FBF1F010BD083802400024F40026
:1014600040787D012DE9F84F04007DD0DFF878B396
:101470002078ABF10407C007A7F1040550D0DBF8D2
:1014800000105846C1F3810101290FD00168C1F352
:101490008101022902D13968490207D40068C0F3EA
:1014A0008100032809D13868400206D528688003E6
:1014B00036D560680028D8D032E06068B0F5803F4B
:1014C00010D0B0F5A02F286810D020F4803028600C
:1014D000286820F4802028606068A0B1FFF7E4FD50
:1014E00006460CE0286840F48030F4E740F48020A1
:1014F0002860F7E7FFF7D8FD801B642876D82868B6
:101500008003F7D50CE0FFF7CFFD064605E000BFEE
:10151000FFF7CAFD801B6428F0D828688003F7D441
:101520002078DFF8C89280074FF0000A44D5DBF836
:101530000010584611F00C0F0FD00168C1F3810163
:10154000022902D13968490207D50068C0F3810039
:1015500003280AD13868400207D42868800715D5C7
:10156000E068012800D111E03AE1E068B0B1012063
:10157000C9F80000FFF798FD064604E0FFF794FD68
:10158000801B0228BAD828688007F7D52868216907
:1015900020F0F80040EAC10028600DE0C9F800A082
:1015A000FFF782FD064604E0FFF77EFD801B022860
:1015B0001CD828688007F7D42078000727D5DFF8E3
:1015C00028828B48616908F16C0881B101210160B2
:1015D000FFF76AFD064604E0FFF766FD801B022860
:1015E00004D8D8F800008007F6D510E089E0C0F8EC
:1015F00000A0FFF759FD064605E000BFFFF754FDC8
:10160000801B02287DD8D8F800008007F6D4207807
:10161000400769D574484FF0000838300068C000B2
:101620000BD471483830016841F080510160006886
:101630004FF0010800F0805000906E4E3068C005F9
:1016400011D4306840F480703060FFF72DFD0090B9
:1016500006E000BFFFF728FD0099401A022850D885
:101660003068C005F6D5604EA068683601280FD0F6
:101670000528306810D020F001003060306820F07C
:1016800004003060A068B8B1FFF70EFD00900FE0D5
:10169000306840F00100F4E740F004003060F7E704
:1016A000FFF702FD0099411A41F28830814264D867
:1016B00030688007F4D50EE0FFF7F6FC009007E0F5
:1016C000FFF7F2FC0099411A41F28830814254D868
:1016D00030688007F4D4B8F1000F05D042483830A4
:1016E000016821F080510160A069A8B3DBF8001007
:1016F000C1F38101022947D00228C9F860A005D0B2
:1017000000E03AE0FFF7D0FC044639E0FFF7CCFCFC
:10171000064604E0FFF7C8FC801B02282DD8286885
:101720008001F7D4F4E907010843E168324A490827
:1017300002EB0141A26841EA82110843217C40EAA0
:101740000160217D40EA017038600120C9F8600025
:10175000FFF7AAFC044606E044E000BFFFF7A4FC44
:10176000001B022809D828688001F7D53AE000BF9D
:10177000FFF79AFC001B022802D90320BDE8F88F6E
:1017800028688001F4D42DE00128F7D03868E26998
:1017900000F48001914223D1226A00F03F0191427E
:1017A0001ED147F6C071626A0140B1EB821F17D1AA
:1017B000A26A4FF0FF3300F4403103EB5202B1EB69
:1017C000024F0DD194F82C2000F07061B1EB026F44
:1017D00006D194F8301000F0E040B0EB017F01D06A
:1017E0000120CBE70020C9E708380240000047424B
:1017F000800E4742007000400000FFFF10B5401E01
:10180000B0F1807F01D3012010BD4FF0E024606172
:101810000F21601701F0FFF80020A0610720206170
:10182000002010BD7047704770B590F83C20012A29
:1018300032D0012480F83C40022280F83D20036829
:101840005A689D6822F070060A6832435A60134B4A
:1018500002689A4214D0B2F1804F11D0104B9A42D4
:101860000ED0104B9A420BD00F4B9A4208D00F4B20
:101870009A4205D00E4B9A4202D00E4B9A4204D1A6
:10188000496825F080031943916080F83D400021AC
:1018900080F83C10084670BD022070BD0000014079
:1018A0000004004000080040000C0040000401401B
:1018B000004001400018004010B5040003D094F827
:1018C0003D0010B107E0012010BD002084F83C006D
:1018D000204600F01FF8022084F83D00211D2068FA
:1018E00000F012FE012084F8460084F83E0084F8DF
:1018F0003F0084F8400084F8410084F8420084F8F6
:10190000430084F8440084F8450084F83D0000203A
:1019100010BD000008B500681149884209D111487E
:10192000016841F001010160006800F001000090D1
:1019300008BD0D498842FBD10A48001F016841F0EB
:10194000020101600068002200F0020000901146D0
:101950001D20FFF717FCBDE808401D20FFF704BC61
:1019600000000140443802400004004090F83D105F
:10197000012901D001207047022180F83D10006844
:101980001149884214D0B0F1804F11D00F498842DC
:101990000ED00F4988420BD00E49884208D00E491C
:1019A000884205D00D49884202D00D49884204D1B1
:1019B000816801F00701062903D0016841F00101A7
:1019C000016000207047000000000140000400405A
:1019D00000080040000C00400004014000400140AD
:1019E0000018004070B5044690F83C00002501281E
:1019F00017D0012684F83C60022084F83D0020685E
:101A0000826822F0770222F47F42826008685028C0
:101A100038D00DDC20284FD005DC90B3102811D130
:101A20004AE0022070BD302846D040280AD13BE071
:101A300060282FD070280DD0B0F5805F03D0B0F5AE
:101A4000005F12D0012584F83D60002084F83C003E
:101A5000284670BDCB68D1E90121206800F0C5FDA2
:101A60002068816841F0770109E0CB68D1E9012164
:101A7000206800F0BAFD2068816841F480418160EF
:101A8000E1E719E0CA684968206800F083FE502148
:101A9000206806E0CA684968206800F08CFE602172
:101AA000206800F0ACFDCEE7CA684968206800F005
:101AB00071FE40212068F4E7226801461046F0E7F5
:101AC000704770B50446006801694FF00005C943CE
:101AD000890715D4C168C943890711D4E91E01617A
:101AE00001202077206880698007204602D0FFF718
:101AF000E7FF04E000F0C2F8204600F080F9257707
:101B000020680169C943490717D4C168C943490717
:101B100013D46FF0040101610220207720688069EE
:101B200010F4407F204602D0FFF7CAFF04E000F027
:101B3000A5F8204600F063F9257720680169C943BC
:101B4000090716D4C168C943090712D46FF0080108
:101B50000161042020772068C0698007204602D0F8
:101B6000FFF7AEFF04E000F089F8204600F047F9E7
:101B7000257720680169C943C90617D4C168C943DC
:101B8000C90613D46FF01001016108202077206886
:101B9000C06910F4407F204602D0FFF791FF04E0B7
:101BA00000F06CF8204600F02AF9257720680169DA
:101BB000C943C90708D1C168C943C90704D1891EEF
:101BC0000161204600F01CF920680169C94309063B
:101BD00009D4C168C943090605D46FF080010161C9
:101BE0002046FFF71FFE20680169C943490609D452
:101BF000C168C943490605D46FF040010161204620
:101C000000F0FFF820680169C94389060BD4C16858
:101C1000C943890607D46FF0200101612046BDE861
:101C20007040FFF700BE70BD10B586B004461421A9
:101C30006846FEF7AEFB0E492068884216D10D4873
:101C40000021026842F004020260006800F0040013
:101C500005904FF4807000900220CDE9010103212E
:101C6000CDE9031069460448FFF730F906B010BD0E
:101C7000000400403038024000080240704770B550
:101C80000D46040003D094F83D0010B107E0012098
:101C900070BD002084F83C00204600F01BF80220B4
:101CA00084F83D00211D206800F02EFC20680168AA
:101CB00021F00801016054F8460B016829430160D6
:101CC000012004F81F09E0752076E0762077A075E2
:101CD000002070BD704770B5044690F83C000026A7
:101CE0000D4601280FD0012084F83C006AB1042A77
:101CF0001DD0082A2FD00C2A3FD00126002084F8BE
:101D00003C00304670BD022070BD206800F080FCB1
:101D10002068816941F0080181612068816921F0B2
:101D200004018161206881692A69114311E02068FA
:101D300000F09EFC2068816941F4006181612068A7
:101D4000816921F480618161206881692A6941EAA1
:101D500002218161D2E7206800F0C0FC2068C169DF
:101D600041F00801C1612068C16921F00401C1612D
:101D70002068C1692A69114311E0206800F0E2FC83
:101D80002068C16941F40061C1612068C16921F422
:101D90008061C1612068C1692A6941EA0221C1618B
:101DA000ACE710B5040003D094F83D0010B107E093
:101DB000012010BD002084F83C00204600F01EF8F1
:101DC000022084F83D00211D206800F09DFB0120C9
:101DD00084F8460084F83E0084F83F0084F8400010
:101DE00084F8410084F8420084F8430084F84400F9
:101DF00084F8450084F83D00002010BD704770470E
:101E00007047704770477047F8B501680446086826
:101E1000CA684B6910F00F0F4FF0000559D003F05E
:101E2000010602F49077374365D0C10705D0D1058C
:101E300003D5216C41F001012164410705D5D90783
:101E400003D0216C41F002012164810705D5D90737
:101E500003D0216C41F004012164010707D502F091
:101E60002001314303D0216C41F008012164216C31
:101E700000293AD0800604D5900602D5204600F00D
:101E8000E2FC20684069216CC0F38010090700D48F
:101E900060B3204600F0B0FC20684069400621D5C0
:101EA0002068143050E8001F21F0400140E8001283
:101EB000002AF5D1A06BA8B16C490165A06BFEF7B3
:101EC00074FE002811D0A06B016D01B0BDE8F04098
:101ED000084783060FD593060DD52046BDE8F84088
:101EE00000F0B1BC2046FFF78EFFF8BD2046FFF79B
:101EF0008AFF2564F8BD266B2023012E79D1C60602
:101F000077D5D60675D508684868009048694006B8
:101F100040D5A16B086840680004000CEAD0A28D8F
:101F20008242E7D9E085C869B0F5807F2DD020686E
:101F30000C3050E8001F21F4807140E80012002AA4
:101F4000F5D12068143050E8001F21F0010140E86D
:101F50000012002AF5D12068143050E8001F21F04B
:101F6000400140E80012002AF5D184F83E30256394
:101F700020680C3050E8001F21F0100140E80012EA
:101F8000002AF5D1A06BFEF7C7FDA08DE18D401AA8
:101F900081B229E0A08DE18D401A81B2E08D002848
:101FA000A8D00029A6D020680C3050E8002F22F4D9
:101FB000907240E80026002EF5D12068143050E8D9
:101FC000002F22F0010240E80026002EF5D184F80F
:101FD0003E30256320680C3050E8002F22F01002BC
:101FE00040E80023002BF5D12046FFF70BFFF8BD9A
:101FF000FFE705062BD5150629D594F83D002128C5
:10200000F5D1A068B0F5805F01D12069B0B1206A38
:10201000411C2162216800784860E08C401E000469
:10202000000CE084E3D12068C16821F08001C16028
:102030002068C16841F04001C160D8E7206A00888B
:10204000C0F308004860206A801C2062E5E7400673
:10205000CDD55006CBD5CA68204622F04002CA60D2
:1020600084F83D3000F089F8C1E70000E927000856
:1020700070B5040004D094F83D00002510B106E0CE
:10208000012070BD84F83C50204600F023F8242045
:1020900084F83D002068C16821F40051C1602046E9
:1020A00000F032FC2068016921F490410161206850
:1020B000416921F02A0141612068C16841F4005161
:1020C000C1602564202084F83D0084F83E00002093
:1020D00070BD0000F0B587B0044614216846FEF7D5
:1020E00058F92149206888423BD1204800240168E2
:1020F00041F480110160006800F4801005901B48D5
:102100001038016841F004010160016801F0040128
:102110000591016841F0080101600068022500F0A6
:10212000080005904FF48050CDE9000502AA03266F
:10213000082782E8D00069460D48FEF7C7FE042054
:10214000CDE9000502AA694682E8D0000948FEF7F9
:10215000BDFE002211463520FFF714F83520FFF7A9
:1021600003F807B0F0BD00000050004040380240C6
:1021700000080240000C024070477047FEE7000074
:102180007FB500212748009101910291244A0391D3
:10219000026001244FF480320461C0E9012101761C
:1021A00080F82010204AC0E90A210425C561C160D9
:1021B00080F830104461FEF771FB08B172B6FEE79B
:1021C0000A20CDE900040520029069461548FEF773
:1021D000ABFA08B172B6FEE70B2000900220CDE901
:1021E000010569460F48FEF79FFA08B172B6FEE78F
:1021F0000C2000900320019069460A48FEF794FAEB
:1022000008B172B6FEE70D20CDE900056946054824
:10221000FEF78AFA002801D072B6FEE77FBD000003
:1022200000200140A80000200100000F7FB500241D
:1022300015480094019402941249039401604FF4EC
:102240008031C0E901140461047680F820400F4910
:10225000C0E90A140125C561C46080F830404561B9
:10226000FEF71CFB08B172B6FEE70B20CDE90005B6
:10227000694602940448FEF757FA002801D072B666
:10228000FEE77FBD00210140F00000200100000FAB
:1022900070B586B014216846FEF77BF81A48002412
:1022A000016841F004010160016801F00401059139
:1022B000016841F002010160016801F0020105912D
:1022C000016841F0080101600068012500F0080084
:1022D000009505904FF48810CDE901040B4E694636
:1022E0003046FEF7F3FD14208DE831006946304694
:1022F000FEF7ECFD002211460620FEF743FF062004
:10230000FEF732FF06B070BD3038024000040240D4
:1023100010B586B0002417480094019402940394E9
:102320000494134905940160B321C0E901144FF6E8
:10233000FF71C0E9031444618461FFF7BDFA08B17D
:1023400072B6FEE74FF48050009069460948FFF7E7
:1023500049FB08B172B6FEE7049404A90548059448
:10236000FFF762FA002801D072B6FEE706B010BD92
:10237000000001403801002030B58DB000240794E2
:10238000089409940A940B941C2168460C94FEF757
:1023900000F82A4D28482860B320C5E901040A2026
:1023A000C5E903042846AC61FFF786FA08B172B6A6
:1023B000FEE74FF48050079007A92048FFF712FB73
:1023C00008B172B6FEE71D48FFF7EBFC08B172B624
:1023D000FEE708211948FFF752FC08B172B6FEE784
:1023E0000B940BA915480C94FFF71EFA08B172B6AE
:1023F000FEE7602000900120019002200290082258
:10240000694604940D48FFF766FC08B172B6FEE712
:1024100001220821286800F0DBF829686FF001002C
:1024200008612868C16841F00101C1600348FFF7F5
:10243000FBFB0DB030BD0000000400408001002017
:10244000FEE7FEE770477047FEF734BE30B593B045
:1024500034216846FDF79DFF14210DA8FDF799FF73
:1024600020480025016841F080510160006800F0BB
:10247000805012901C48016841F44041016000689E
:10248000022400F440401290012003901020049098
:10249000009406940820CDE90750B420CDE9090442
:1024A0000B9468460C94FEF7DDFF08B172B6FEE7A8
:1024B000FEF79AFE08B172B6FEE70DA90F2081E87B
:1024C00031004FF4A05010904FF48050119005212E
:1024D0000DA8FEF7C1FE002801D072B6FEE713B0CA
:1024E00030BD0000403802400070004002480168E2
:1024F00041F470010160704788ED00E00148FFF78A
:10250000E0BA000080010020F0B50268254C264D9D
:10251000264E274F274B4FF0804CA04209D06045F4
:1025200007D0A84205D0B04203D0B84201D09842AB
:1025300004D122F0700E4A6842EA0E02A0421BD07B
:10254000604519D0A84217D0B04215D0B84213D078
:10255000984211D0184DA8420ED0184DA8420BD069
:10256000174DA84208D0174DA84205D0164DA842D5
:1025700002D0164DA84203D122F44075CA682A43FE
:102580004D6922F080022A4302608A68C2620A68AA
:102590008262A04201D0984201D109690163012100
:1025A0004161F0BD0000014000040040000800400F
:1025B000000C004000040140004001400044014084
:1025C0000048014000180040001C0040002000406E
:1025D00010B501F01F030121046A99408C43046285
:1025E000016A9A401143016210BD10B5846842EA45
:1025F000032224F47F440A432243826010BD826890
:1026000022F070020A4342F0070181607047000027
:10261000F0B5026A22F001020262036A426884692C
:10262000124E24F073050C682C4323F002058B68CE
:102630002B430D4DA84201D0B04205D123F008072D
:10264000CB683B4323F00403A84201D0B04205D13C
:102650004D6922F4407215438A692A4342608461BD
:10266000496841630362F0BD00000140000401407D
:10267000F0B5026A22F010020262026A43688469BD
:102680000D6824F4E64444EA05248D6822F0200213
:1026900042EA05120F4D104EA84201D0B04206D1B9
:1026A000CF6822F0800242EA071222F04002A842DC
:1026B00001D0B04207D14D6923F4406343EA85035A
:1026C0008D6943EA850343608461496881630262DE
:1026D000F0BD00000000014000040140F0B5026AB6
:1026E00022F480720262026A4368C46922F40072B2
:1026F00024F073050C68124E2C438D6842EA0522C3
:102700000E4DA84201D0B04206D1CF6822F400623B
:1027100042EA072222F48062A84201D0B04207D1E7
:102720004D6923F4405343EA05138D6943EA0513C9
:102730004360C4614968C1630262F0BD00000140AA
:102740000004014030B5026A22F480520262046A39
:102750004268C3690D6823F4E64343EA05238D68A4
:1027600024F4005444EA0534084DA84202D0084D30
:10277000A84204D14D6922F4804242EA85124260A7
:10278000C36149680164046230BD0000000001407B
:102790000004014010B5036A046A24F001040462D5
:1027A000846924F0F00444EA021423F00A020A4384
:1027B0008461026210BD10B5036A23F01003036246
:1027C0008369046A23F4704343EA023224F0A003CD
:1027D00043EA01118261016210BD00000148FFF768
:1027E00013BB0000C801002010B5806B0021C1851B
:1027F000C184FFF708FB10BD01680C3151E8002FC0
:1028000022F4907241E80023002BF5D101681431C5
:1028100051E8002F22F0010241E80023002BF5D1FE
:10282000016B012909D101680C3151E8002F22F018
:10283000100241E80023002BF5D1202180F83E1042
:1028400000210163704708B590F83E10222901D09D
:10285000022008BD82684FF480539A4201D1016979
:1028600021B1816A9A421BD04AB10AE00268816AAA
:102870005268C2F308020A80816A891C08E0026972
:1028800072B10268526802F07F020A70816A491CC4
:102890008162C18D491E0904090CC18503D019E06C
:1028A00002685268F1E70168CA6822F02002CA6033
:1028B0000168CA6822F48072CA6001684A6922F01D
:1028C00001024A61202180F83E10016B012903D0EA
:1028D000FFF752FC002008BD0021016301680C31A4
:1028E00051E8002F22F0100241E80023002BF5D11F
:1028F00001680A68D20602D50A6849680091818D8C
:10290000FFF780FAE6E7000070B504460068016949
:10291000E26821F44051114301612169A068E26934
:1029200008436169114308432168CA6849F20C638E
:102930009A430243CA6020684169A26921F4407148
:102940001143416131492068884202D030498842B0
:1029500002D1FEF72BFD01E0FEF718FDE26900232E
:10296000192164253226B2F5004F626828D0A0FBF9
:102970000101930F9200FDF795FC0146B0FBF5F0C5
:102980006FF01802504301EB800006EB0010B0FB23
:10299000F5F000F0F002B1FBF5F002EB0012B1FB34
:1029A000F5F06FF01803584301EB800006EB0010C0
:1029B000B0FBF5F000F00F0021681044886070BD96
:1029C000A0FB010192185B41FDF76CFC0146B0FBD6
:1029D000F5F00201B1FBF5F06FF01803584301EB7D
:1029E000800006EBC000B0FBF5F000F0F80002EB51
:1029F0004002B1FBF5F0584301EB800006EBC0004C
:102A0000B0FBF5F000F00700D6E700000010014031
:102A100000140140FEE70907090E002804DB00F15D
:102A2000E02080F80014704700F00F0000F1E02073
:102A300080F8141D7047000070B541480168414C92
:102A4000C90601D4616B81B101683F4AC9064FF0E4
:102A5000000302D4616B012912D00068C00602D4C1
:102A6000606B022863D0636370BD9FED380A01205C
:102A700084ED0E0A84ED100A84ED110A606370BDC6
:102A800034493348086034480068016841F0010166
:102A90000160606A014605E002EB800555F8045CC0
:102AA00042F82050401EF7D52365002006E000BF05
:102AB00052F82030256D2B442365401C0B4688427C
:102AC000F6DB206D00EE100AF8EE400A00EE103A38
:102AD000B8EEC00A80EE801ABCEEC10A10EE100AF1
:102AE0002065206D0028CAD0106800EE100AB8EEEC
:102AF000400A10EE100A00F0F3FE41EC100B53EC0C
:102B0000102B9FED160B51EC100B00F07BFB9FED93
:102B1000151B53EC112B00F0FBFC9FED141B53EC29
:102B2000112B00F06FFB00F0C5FCA06270BD1148D6
:102B3000406A4FF6E8518842F8D96363136070BD6C
:102B400010040240000000205C0300200000000090
:102B500010EB09002C040040800100200000000060
:102B600080842E410000000000004E400000000064
:102B7000000024400000014008B5FEF7A3FAFFF76B
:102B800065FCFFF785FB65480025016841F480017D
:102B9000016000682A4600F4800000902946382031
:102BA000FEF7F0FA3820FEF7DFFAFFF7E9FA5D48A2
:102BB0005B4901604FF4E131C0E901150C21C560AA
:102BC000C0E904518561C561FFF752FA08B172B6D8
:102BD000FEE7FFF72BFBFFF7CFFBFFF799FB514811
:102BE0009038FEF7C3FE504FDFF84081504E514CF5
:102BF0003868C00675D4606B022872D1606F0228F5
:102C000058D1606A844605E006EB800151F8041C47
:102C100046F82010401EF7D5E06F3060A567002110
:102C2000604605E056F82120A36F1A44A267491CAC
:102C30008142F7DBA06F90B3A06F00EE100AF8EEB0
:102C4000400A00EE10CAB8EEC00A80EE801ABCEE50
:102C5000C10A10EE100A2065206D00EE100AB8EED1
:102C6000400A10EE100A00F03BFE41EC100B53EC52
:102C7000102B9FED310B51EC100B00F0C3FA9FEDC0
:102C8000301B53EC112B00F043FC9FED2F1B53EC3A
:102C9000112B00F0B7FA00F00DFCA06201E0FFE795
:102CA000A5623868400702D400F0A6F901E096203A
:102CB000E0646567D8F82400E169884211D3606F49
:102CC00001280ED1206A0321B0FBF1F020490860F1
:102CD000144848380068016841F001010160022091
:102CE0006067D8F8241040466369A26C1A44914288
:102CF00003D3406AA06400F02DF8FFF79DFE316811
:102D000060690A1AA16C8A4205D34FF6FE72101A46
:102D10008842BFF46DAFA5646AE700003038024016
:102D200000500040C8010020100402400000014093
:102D30005C030020000000200000000080842E4181
:102D40000000000000004E40000000000000244091
:102D50002C0400402DE9F041974904222DED048B0D
:102D6000A1F5B270FDF72EFE944CA0690028FCD0AE
:102D70000025A561904E306806F11001086070686A
:102D80004860B0688860F068C8601323002001EBD9
:102D9000031200BF02EB800757F8107C42F8207046
:102DA000401C0328F6DD5B1EF0D565655FF0000072
:102DB00001EB00121268636D1A446265401C05281D
:102DC000F6DB606D0522B0FBF2F06066A5650020C1
:102DD00001EB00135B68A76D3B44A365401C05280D
:102DE000F6DBA06DB0FBF2F0A066E5655FF00000D9
:102DF00001EB00129268E36D1A44E265401C14284E
:102E0000F6DBE06D1422B0FBF2F0E06625660020F0
:102E100001EB0013DB68276E3B442366401C14283B
:102E2000F6DB206EB0FBF2F02067606E90B1606E52
:102E300000EE100AB8EE400A10EE100A00F050FD45
:102E40009FED5F1B53EC112B00F062FB00F032FB97
:102E5000E06200E0E562A06E90B1A06E00EE100AA4
:102E6000B8EE400A10EE100A00F03AFD9FED561B36
:102E700053EC112B00F04CFB00F01CFB206300E036
:102E80002563A0689FED528B012871D0E06E00EEA3
:102E9000100AB8EE400A10EE100A00F021FD9FED76
:102EA0004E1B53EC112B00F033FB41EC190B206D42
:102EB00000EE100AB8EE400A10EE100A00F010FD05
:102EC0009FED471B53EC112B00F09CF953EC192B91
:102ED00041EC100B51EC100B00F01AFB00F0EAFA79
:102EE000E06160680128E06C00EE100AB8EE400A6C
:102EF00010EE100A4AD000F0F3FC41EC190B206FE1
:102F000000EE100AB8EE400A10EE100A00F0E8FCDD
:102F10009FED351B53EC112B00F074F953EC192B7A
:102F200000F0F6FA53EC182B00F0F2FA41EC180B13
:102F3000206D00EE100AB8EE400A10EE100A00F004
:102F4000CFFC9FED2B1B53EC112B00F05BF953ECE6
:102F5000182B41EC100B00BF51EC100B00F0D8FA0D
:102F600000F0A8FA2062BDEC048BBDE8F081FFE719
:102F7000B06800EE100AB8EE400A10EE100A00F039
:102F8000AFFC41EC100B53EC182BA3E700F0A8FCAE
:102F900041EC190B206F00EE100AB8EE400A10EE5B
:102FA000100A00F09DFC53EC182B00F0B1FA41EC34
:102FB000100B53EC192BCFE70C020020000000206F
:102FC000588115588115F83F6768866668866E4097
:102FD000943889933889F33F1CC2211CC221CC3F0D
:102FE0000000000000408F40000000000000594039
:102FF000000000000088C34070B52D4C2DED068BFD
:10300000206800EE100AA06AF8EE400A00EE100AEE
:10301000B8EE400A30EEC08A84ED0E8A94ED100AB4
:1030200070EE088AC4ED108A94ED0F0A38EE400A5B
:1030300084ED110A10EE100A00F052FC04F1800534
:1030400095ED041B53EC112B00F062FA41EC1A0BC6
:1030500018EE900A00F044FC95ED021B53EC112B86
:1030600000F056FA41EC190B18EE100A00F038FC8B
:1030700095ED001B53EC112B00F04AFA53EC192B81
:1030800000F018F853EC1A2B00F014F800F012FAC4
:10309000E06484ED0F8AE16C2069814203D8E16C21
:1030A000E068814200D2E064BDEC068B70BD000098
:1030B0000000002010B591EA030F48BF83F00043E1
:1030C00000F12C83841A71EB030C05D2121943EB27
:1030D0000C03001B61EB0C01DFF824E14FEA1154F3
:1030E000A4EB135C1EEA430F18BF9EEA445F73D043
:1030F00023EA0E03DCF1200E21EA045143F480138D
:1031000032D322FA0CFE10EB0E0023FA0CFE41EB38
:103110000E01CCF1200E03FA0EFE10EB0E0051F161
:103120000001B1F5801FCCF1200E32D201EB045129
:1031300012FA0EF2BDE8104058BF7047401C38BF6D
:103140005FEA420218BF7047002814BF20F0010058
:1031500041F100014FEA410313F5001F38BF7047EA
:10316000A1F1C04100F0CCBA012A43EB0302ACF15B
:10317000200CDCF11F0E32BF4FF0000E23FA0CF3CF
:1031800010EB030041EB0451B4EB115FD0D0A1EB85
:10319000045101F5801149085FEA300001EB045148
:1031A0000ED350F1000038BF12FA0EFE08D1BDE870
:1031B0001040C9E7401C38BF5FEA4202CAD1C3E7EA
:1031C000BDE810404FEA410313F5001F38BF7047B8
:1031D000A1F1C04100F094BA9EEA445F08D011EA20
:1031E0005E0FBDE8104004BF01F0004100207047B1
:1031F000BDE8104070B500F035FA00BF64FBBE3E7C
:103200000000E0FF2DE9C04130B4DFF8A0C23CEA85
:10321000111418BF3CEA131400F0EC8081EA030596
:103220001CEA111444EAD57418BF1CEA131500F007
:10323000C780A4EB05044FF0004545EAC12145EAEB
:10324000C32341EA505143EA525304F17F74994237
:1032500004F500344FEAC0204FEAC22208BF904272
:1032600000F09C804FEA13650FF24016765D4FEA3E
:10327000134506FB05F7C7F1807706FB07F74FEA12
:10328000D737A7FB03687642C8F58038A7FB06CE80
:1032900038BFA8F1010807FB08E64FF0000EA6FBB7
:1032A000028CE6FB03CEDCF1000CCEF1004E38BF01
:1032B000AEF1010EA6FB0C584FF000074FF00005D1
:1032C000E6FB0E87A1FB08C6A0FB07CE16EB0E0699
:1032D00045F10005E1FB076515F1E04E7EBFA4F561
:1032E00080345FEA46066D4116F1800745F100051E
:1032F0004FEA17274FEA066647EA0567A6F1DE465A
:10330000B6F1805F4FEA15251FD9384624F0010C2D
:1033100005EBC471BCF1FE6F01EB0C1102D8F0BCDF
:10332000BDE8008124425CBF01F5801E9EEAC47F97
:1033300002D4F0BCBDE80081244238D4F0BCA1F135
:10334000C041BDE8004100F0DBB94FEAD22242EAB9
:1033500043524FEAD323A7FB02864FEAD02040EA2C
:10336000415007FB03661EEA0E0F4FEAD12105FB11
:10337000026658BFA6EB0056B6EB00564FEA520E57
:103380004EEAC37E18EB0E0E56EB530EBDD518EB6E
:1033900002085E417F1C55F10005B6E74FF4801529
:1033A0004FF000074FF000064FF00008ADE7F0BC0B
:1033B0004FF0000001F1C04101F00041BDE8008183
:1033C00011EA0C1F0CEA131500D00CE013EA0C1FD5
:1033D00000F025804FF00000F0BC81EA030101F00D
:1033E0000041BDE80081F0BCBDE8004181EA030175
:1033F00000F086B9F0BCBDE8004170B500F032F9CC
:10340000097EFC3E00F007B881EA03014FF000009E
:1034100001F00041704781EA030100F071B9F0BC8E
:10342000BDE800414FF0000021497047FFFDFBF966
:10343000F7F5F4F2F0EEEDEBE9E8E6E4E3E1E0DEE7
:10344000DDDBDAD8D7D5D4D3D1D0CFCDCCCBCAC859
:10345000C7C6C5C4C2C1C0BFBEBDBCBBBAB9B8B780
:10346000B6B5B4B3B2B1B0AFAEADACABAAA9A8A873
:10347000A7A6A5A4A3A3A2A1A09F9F9E9D9C9C9B41
:103480009A999998979796959594939392919190EC
:103490008F8F8E8E8D8C8C8B8B8A8989888887877D
:1034A0008685858484838382828181800000FF07F2
:1034B0000000F87F4FEA1153A3F58063D3F11E0398
:1034C000A8BFD3F1200C08DB4FF0004242EAC12232
:1034D00052EA505232FA03F0704709420BD4102BD3
:1034E000C4BF0020704703F5787CBCF1FF3F05D0D6
:1034F0004FF0FF3070474FF00000704770B500F09C
:10350000B1F800BF4992248000207047F0E7000026
:10351000DFF848C170B51CEA111E1EBF1CEA131566
:103520009EEA0C0F95EA0C0F00F06F8081EA03040D
:1035300023EA4C134EEAD47E21EA4C1141F4801167
:1035400043F48013AE44A1FB024CA0FB0365AEF133
:103550007F7E361955EB0C05A1FB034C4CF10003A3
:10356000A0FB021C16EB0C06654153F10003094257
:1035700018BF46F0010613F4007F0BD14FEA033168
:103580004FEA0530340341EA155140EA16506FF016
:1035900003020AE04FEAC3214FEAC520F40241EAE0
:1035A000555140EA56506FF0020202EB2E4201EBF9
:1035B000025585EACE710AD05FEA440C18BF24F0A8
:1035C000004450F1000041F1000120EAD47040F2C3
:1035D000FE7C624500D270BDA84214BF4FF080440B
:1035E0004FF04044002E08BF0024BEF1806FA8BFFA
:1035F000A1F1C041BDE8704080F282804FF0000030
:1036000001F1C04101F0004170479EEA0C0F0CEA45
:10361000131518BF95EA0C0F06D04FF0000081EA91
:10362000030E0EF0004170BD00F01CF88900013E51
:1036300000F007B800F009B84FEA430C5FEA5C5CA1
:1036400008D081EA030100F05BB84FEA410C5FEA61
:103650005C5CF6D14FF00000014970470000FF07A5
:103660000000F87F0EF1020E2EF0030E5EF8046BE0
:10367000364205D4012A43EB030515F5001F12D885
:10368000012841EB010C1CF5001F0CD80ED14FEAAC
:10369000D17C15F5001F0CEB4C0C0CF1020C08BF93
:1036A0004CEBD37C04E04FF0080C01E04FEAD37CF4
:1036B0000CEB4C0526FA05F606F00706B6F1040CED
:1036C00006D20EEB860CBDE870404CF0010C604752
:1036D000DFE80CF0090B02024FF000414FF0000050
:1036E000A1F5002170BD19461046012851EB0104D7
:1036F00018BFD4F5001484BF002001F0004170BD54
:103700000808A0F500114FEA3101704710B591EAA1
:10371000030F48BF83F000433FF5D4AC841A71EB2C
:10372000030C07D212198CF0004C43EB0C03001B66
:1037300061EB0C01DFF8A4E14FEA1154A4EB135C38
:103740001EEA430F18BF9EEA445F00F0B08023EAF0
:103750006E03524221EA0451C3EB6E0338BF5B1E75
:10376000DCF1200E25D322FA0CFE10EB0E0043FAFA
:103770000CFE41EB0E01CCF1200E03FA0EFE10EB15
:103780000E0051F10001CCF1200E29D412FA0EF2F4
:1037900001EB0451BDE8104058BF7047401C1CBFEE
:1037A000B2F1004F704700280CBF491C20F0010007
:1037B000704712EB020E43EB030218BF4FF0010EED
:1037C0004EEA4202ACF1200CDCF11E0E54D943FA51
:1037D0000CFE10EB0E0051F1FF31CCF11E0ED5D5D1
:1037E0000EF1010E12FA0EFE404141EB010101EB18
:1037F000445C5FEA5C5C10D910EBDE7001EB0451B5
:1038000038BFBEF1004FBDE8104018BF7047002818
:103810000CBF491C20F00100704730D24FEAD42C75
:1038200011F5001124F400641BD0B1FA81F20B3AB7
:10383000A41AA41ED2F12003914030FA03F31943D5
:10384000904001EBCC71002C01EB0451BDE810401D
:10385000A8BF704701F1C0414FF0000001F00041E6
:103860007047B0FA80F310FA03F100D110BDE41AEA
:10387000173C4805C90AE4E701EB045110BD4910A3
:1038800001EB0451BDE810404FEA300002E04FF078
:10389000000170474A0008BF0042F8D0B2F5001F8F
:1038A00028BF704701F000414FF0000070479EEACA
:1038B000445F07D011EA5E0FBDE8104004BF00214D
:1038C00000207047BDE8104070B5FFF7CBFE00BF89
:1038D00040DFF63E83F00041104670470000E0FFF5
:1038E00043004FEAD30C4FEA3C0C43401FBF400754
:1038F0000CF1605113F0FE4F70471CF0006F03D1C4
:1039000000200CF0004170470CF0004343EA507077
:1039100010B540EACC0000F00EF800BF00000092A5
:103920004FEA0001FFF7ECBE4FF000414FF00000FE
:10393000A1F5002170470EF1020E2EF0030E5EF885
:10394000044B244204D44FEA4102B2F17F4F11D814
:103950004FEA4003B3F17F4F0CD80ED14FEAD07C31
:10396000B2F17F4F0CEB4C0C0CF1020C08BF4CEB8E
:10397000D17C04E04FF0080C01E04FEAD17C0CEB65
:103980004C0324FA03F404F00704B4F1040C06D247
:103990000EEB840CBDE810404CF0010C6047DFE8F2
:1039A0000CF0070802024FF00040A0F5800010BDA7
:1039B0000846420018BFD2F1807288BF00F0004074
:1039C00010BD4FF04070E1EE100A7047000610166F
:1039D00000061016000000000000000001020304B1
:1039E0000607080900000000010203040C3A000861
:1039F00000000020A800000000020008B43A0008FF
:103A0000A8000020C80900001C020008DC05000016
:103A1000000000000000000001000000960000000F
:103A2000E8030000000000000000000000000000AB
:103A30000500000000000000000000000000000081
:103A40000000000000000000000000000000000076
:103A50000000000000000000000000000000000066
:103A60000000000000000000000000000000000056
:103A70000000000000000000000000000000000046
:103A80000000000000000000000000000000000036
:103A90000000004000000000000014400000000092
:103AA0000000F03F010000001000000000000000D6
:043AB0000024F400FA
:04000005080001C529
:00000001FF
